:100000002EC100005DC100005BC1000059C10000AD
:1000100057C1000055C1000053C1000051C100008C
:100020004FC100004DC100004BC1000049C100009C
:1000300047C1000045C1000043C1000041C10000AC
:100040003FC100003DC100003BC1000039C10000BC
:1000500037C1000035C1000033C100000C947B0C97
:100060002FC100000C94870B0C945E0B29C100007B
:1000700027C1000025C1000023C1000021C10000EC
:100080001FC100001DC100001BC1000019C10000FC
:100090000C94350B0C940C0B13C100000C94C50C84
:1000A0000FC100000DC100000BC1000009C100001C
:1000B00007C1000005C1000003C1000001C100002C
:1000C000FFC00000FDC00000FBC000000C94E30A6C
:1000D0000C94BA0AF5C00000F3C00000F1C00000A3
:1000E000EFC000001316161619161C161F1622163E
:1000F000251620032303260329032C032F03320391
:100100004C034C03350338033B033E0341034403D4
:10011000470399099C098B098F099509D309A009FF
:10012000A409AA09AE09B209B809BC09C009D309D2
:10013000C609CA09CE0900002100240027002A00B0
:100140002D003000330001010000040107010A0105
:1001500001021020200808102040102040800201D9
:1001600002010804020101020408102040808040BE
:1001700020100804020180040201804020100804BD
:10018000020108040201010204081020408001025B
:100190000408102040801020050505050705080803
:1001A0000808020202020A0A080804040404010101
:1001B0000101010101010303030303030303040716
:1001C00007070C0C0C0C0C0C0C0C020202020606AD
:1001D0000606060606060B0B0B0B0B0B0B0B04049B
:1001E00000002200250028002B002E0031003400E2
:1001F00002010000050108010B010000200023009E
:10020000260029002C002F0032000001000003010D
:100210000601090100000A0B02090C0D0E08070374
:1002200004010000000000000000000000000000C9
:1002300000000000000000000000000000000000BE
:10024000121110000000000000000000000000007B
:100250000000000000000000000000008B161124C8
:100260001FBECFEFD1E2DEBFCDBF00E00CBF18E074
:10027000A0E0B2E0ECEDF7E300E00BBF02C00790B6
:100280000D92A039B107D9F72EE0A0E9B8E001C07E
:100290001D92A53EB207E1F711E0CFE2D1E000E008
:1002A00006C021970109802FFE010E94F118CE326D
:1002B000D10780E00807A9F70E94B50E0C94EC1B4B
:1002C0009FCE682F8DE49BE084C7CF93C82F682F03
:1002D0008EE09DE07ED78C2F90E0CF9108950F9314
:1002E0001F93CF93DF938B01C8EBDBE02197A1F045
:1002F0008DE49BE022D7882341F08DE49BE0F4D687
:10030000F801808380E090E009C061E070E080E067
:1003100090E00E94430CEACF81E090E0DF91CF9122
:100320001F910F910895AF92BF92CF92DF92EF92FB
:10033000FF920F931F93CF93DF9300D01F921F92D2
:10034000CDB7DEB76C018B01E12CF12CBE016B5FE8
:100350007F4FC601C4DF892B09F077C08D818230C1
:1003600059F028F4813091F780E890E007C084309C
:10037000D1F0883171F0EACF80E094E0F801938702
:100380008287BE016C5F7F4FC601A9DF892B41F1D7
:100390005CC0FFEFEF1AFF0A53E0E516F104B4F278
:1003A00082E090E0F9C080EC94E00E94221986E09F
:1003B00088DFF80182819381029709F0EBC083E422
:1003C00080DF86E07EDF83E47CDF88E17ADF88E11E
:1003D00078DF88E176DF88E174DF88E172DFDAC0F8
:1003E000BE016D5F7F4FC6017ADF892B71F5780101
:1003F000FEE0EF0EF11CA12CB12CB7016A0D7B1DA4
:10040000F80182859385A816B90644F4C60167DF12
:10041000892BD9F45FEFA51AB50AEFCFBE016E5F45
:100420007F4FC6015CDF892B81F4F80184819581BF
:10043000892B71F0BE016F5F7F4FC60150DF892BA2
:1004400039F08DED94E00E9422198FEF9FEFA4C048
:100450004C818B81982F94279D839F3F39F01F9269
:100460008F931F924F938EEE94E05BC0F80124812E
:10047000358182859385F701232B29F4E12CF12C1A
:1004800020E030E02FC020E030E018161906ACF470
:100490005191352768E070E0D901AA0FBB1F37FFE3
:1004A00006C09D0151E2252750E1352701C09D017D
:1004B0006150710989F70197E8CF8A8190E0982F00
:1004C00088275981852B28173907B1F181E090E001
:1004D000F801958784878CE095E00E9422198EEFC1
:1004E0009FEF5AC02817390734F45191E50EF11CDB
:1004F0002F5F3F4FF7CFFF248A8190E0E816F9067F
:10050000D9F081E090E0F801958784878BE195E050
:100510000E9422198A811F928F93FF92EF9289E2A3
:1005200095E09F938F930E940A190F900F900F9060
:100530000F900F900F90D3CF842F90E0F801918708
:100540008087268137818217930799F03F932F93F5
:100550001F924F938DE495E09F938F930E940A1909
:100560000F900F900F900F900F900F908DEF9FEFC7
:1005700013C08F3F910521F4F8011782168204C041
:100580000196F80197838683F8011586148680E02A
:1005900090E002C081E090E00F900F900F900F90DC
:1005A0000F90DF91CF911F910F91FF90EF90DF900F
:1005B000CF90BF90AF9008952F923F924F925F924D
:1005C0006F927F928F929F92AF92BF92CF92DF9263
:1005D000EF92FF920F931F93CF93DF93009709F44D
:1005E0007FC0EC018C010150110981E5282E86E0C5
:1005F000382E90E4492E96E0592E2DE2622E26E008
:10060000722E39EFE32E35E0F32E46ECC42E45E092
:10061000D42E54EBA52E55E0B52E62EA862E65E069
:10062000962E2A9761E08DE00E94D80B00311105CB
:1006300098F5F8018827E758FF4F8F4F0C94F11871
:100640008CE695E02BC08EE795E028C080E995E028
:1006500025C09F928F9224C0BF92AF9221C0DF929B
:10066000CF921EC0FF92EF921BC07F926F9218C074
:100670005F924F9215C03F922F9212C0A0E6B6E053
:1006800008C0A1E7B6E005C0A0E8B6E002C0A1E955
:10069000B6E0BF93AF9304C080EA96E09F938F9338
:1006A0000E940A190F900F9088E698E00E94221984
:1006B000C730D10520F481EB96E00E94221962E355
:1006C00070E080E090E00E94430C60E08DE00E94CA
:1006D000D80B66EB73E080E090E00E94430CA2CF61
:1006E000DF91CF911F910F91FF90EF90DF90CF900E
:1006F000BF90AF909F908F907F906F905F904F9042
:100700003F902F900895CF93DF9360E08CE00E949C
:10071000D80BC6E0D0E0CE010197F1F761E08CE0A4
:100720000E94D80BCE010197F1F760E08CE00E94A7
:10073000D80B2197F1F761E08CE0DF91CF910C9419
:10074000D80B1F93CF93DF93C62FD0E0D595C795D5
:1007500091E090936809C0938A09109269091092F8
:100760008B09682F8FEC9EE0D1D681E00E94580E55
:10077000809167098111FCCF91E090936709909374
:1007800066098FEF809365091092640910926309DE
:100790009093420960914209CC0FDD1FC62BC09394
:1007A000420980914109813061F4109241098091A0
:1007B00042098093BB008091BC0083FDF8CF85EC9B
:1007C00001C085EE8093BC00809167098130E1F320
:1007D00080916409811103C09091640901C091E086
:1007E000A3E4B9E021ED38E0F9018E2F821B8917CF
:1007F00018F48D918193F9CF1092910890939008FD
:10080000992321F08FEC9EE036D6182F812FDF91AF
:10081000CF911F910895CF93C82F81E080936809ED
:1008200050E05595479540938A09109269091092B6
:100830008B098FEC9EE06AD66C2F8FEC9EE066D61B
:1008400081E0CF910C94580ECF93DF93EC0162E3DB
:1008500083E277DF8F7C94E0CC0FDD1F9A95E1F780
:1008600042E363E28C2BD7DF81E090E0DF91CF9110
:100870000895CF93DF93EC0162E380E262DF8F7033
:1008800094E0CC0FDD1F9A95E1F742E360E28C2BF8
:10089000C2DF81E090E0DF91CF9108959CB5282FD1
:1008A00023709C7F922B9CBD2DB582FB992790F9DC
:1008B000822F8E7F892B8DBD08958EBD00000DB4D3
:1008C00007FEFDCF8EB50895CF92DF92EF92FF9293
:1008D0000F931F93CF93DF931F921F92CDB7DEB775
:1008E00089016B017C01FF2460E08AE049835A831F
:1008F0005FD783E0E2DF8E2DE0DF8D2DDEDF8C2DF4
:10090000DCDF4981E42E5A81F52E0E0D1F1DE01605
:10091000F10631F08FEFD1DFF70181937F01F7CF3F
:1009200061E08AE00F900F90DF91CF911F910F91BE
:10093000FF90EF90DF90CF903BC7CF9360E08AE0CD
:1009400037D785E0BADF8FEFB8DFC82F61E08AE0E4
:100950002FD7C0FDF3CFCF910895CF92DF92EF92C2
:10096000FF920F931F93CF93DF931F921F92CDB7E8
:10097000DEB789016B017C01FF2460E08AE04983D6
:100980005A8316D782E099DF8E2D97DF8D2D95DF64
:100990008C2D93DF4981E42E5A81F52E0E0D1F1DFB
:1009A000E016F10629F0F70181917F0186DFF8CF8B
:1009B00061E08AE0FDD60F900F90DF91CF911F91FB
:1009C0000F91FF90EF90DF90CF90B7CF60E08AE07B
:1009D000EFD684E072DF61E08AE0EAC660E08AE098
:1009E000E7D686E06ADF61E08AE0E2C62F923F92B6
:1009F0004F925F926F927F928F929F92AF92BF922F
:100A0000CF92DF92EF92FF920F931F93CF93DF93DA
:100A1000CDB7DEB7C753D1400FB6F894DEBF0FBED7
:100A2000CDBF61E088E1C4D661E085E3C1D661E075
:100A30008AE0BED684E032DF8AEF96E00E94221977
:100A40008CE097E00E942219C9DF77DF60E08AE03E
:100A5000AFD687EC32DF61E08AE0AAD66EDFB6DF80
:100A60008CE197E00E94221981E397E00E9422190D
:100A70001A82198203E110E0AA24A394B12C83E521
:100A800097E00E94221965E18DE49BE0A2D3B8862D
:100A9000AF82BC82AB821E861D861E821D828DE4C3
:100AA0009BE0DDD3E3E3CE2ED12C73E3872E912C94
:100AB000A1E0CA1AD10849F1BE016F5F7F4FCB0197
:100AC00032DC009731F18230910509F4DFC10396E1
:100AD00069F4E984FA8481E0E816F10449F7FC82BC
:100AE000EB8282E090E098878F831AC01814190473
:100AF00024F491E0891A9108DBCF8D819E810196C3
:100B0000817099279E838D83D0CFEE24EA94FE2CAA
:100B100007C08B859C858038910569F1E12CF12C0B
:100B200083E597E00E94221965E18DE49BE051D3B3
:100B300068EE73E080E090E0A6D61A821982FF92F8
:100B4000EF9286EE97E09F938F930E940A191F936E
:100B50000F938DEF97E09F938F930E940A190FB622
:100B6000F894DEBF0FBECDBF0150110909F087CF49
:100B700081E094DE8FC132DF2B853C852130B1E0EE
:100B80003B0740F4AE01415F5F4F60E070E180E001
:100B900090E0E3DE1BDF88E597E00E942219FE016A
:100BA0003F964F017F01412C512C32018B859C8552
:100BB000092E000CAA0BBB0B481659066A067B06C9
:100BC000D0F4D7018D917D011F928F93A9E6B7E0F4
:100BD000BF93AF930E940A1962E070E080E090E05A
:100BE00052D6FFEF4F1A5F0A6F0A7F0A0F900F90DD
:100BF0000F900F90DBCF88E698E00E94221920E842
:100C000030E0AE014F545F4F60E070E180E090E073
:100C10005BDE40E850E0BE01615F7F4FCE018F5444
:100C20009F4F0E94FD18892B29F081E797E00E94D1
:100C3000221930C184E897E00E94221966E08DE411
:100C40009BE0C7D2BA82A982212C30E1332E412CFD
:100C5000512CC12CD12C7601C39454E1752EBE01C8
:100C60006F5F7F4FCB015FDB009709F0AFC02B8533
:100C70003C852038310509F0F0C0D701C60127E0D6
:100C8000880F991FAA1FBB1F2A95D1F7280E391E5E
:100C90004A1E5B1E2FEFC21AD20AE20AF20A9EDE39
:100CA0002B853C85213081E0380730F4AE01415F6F
:100CB0005F4FC201B10151DE89DE9E01215F3F4FCE
:100CC00040E050E0BA018B859C85092E000CAA0BF0
:100CD000BB0B481759076A077B0708F050C0D901BA
:100CE0008D919D011F928F93A9E6B7E0BF93AF93BB
:100CF000CA5CDE4F2883C653D140C95CDE4F3883BF
:100D0000C753D140CE5CDE4F4883C253D140CD5C47
:100D1000DE4F5883C353D140CC5CDE4F6883C4534D
:100D2000D140CB5CDE4F7883C553D1400E940A1975
:100D3000CE5CDE4F4881C253D140CD5CDE4F58813E
:100D4000C353D140CC5CDE4F6881C453D140CB5CEF
:100D5000DE4F7881C553D1404F5F5F4F6F4F7F4F5C
:100D60000F900F900F900F90C95CDE4F3881C753E2
:100D7000D140CA5CDE4F2881C653D140A4CF88E65B
:100D800098E00E94221962E070E080E090E07BD55C
:100D900020E830E0AE014F545F4FC201B10194DD55
:100DA00040E850E0BE01615F7F4FCE018F549F4FFE
:100DB0000E94FD18892B09F038CF84E897E00E9443
:100DC000221966E08DE49BE004D25DC0813091057C
:100DD00009F043C089E897E00E942219FF92EF9240
:100DE000DF92CF928FE997E09F938F930E940A1929
:100DF00080EB97E00E94221920E031E0AE01415FD4
:100E00005F4F60E070E180E090E05EDD7E01F1EF39
:100E1000EF1AFEEFFF0A0F900F900F900F900F90B8
:100E20000F9005EC17E0D4018D914D011F928F9327
:100E30001F930F930E940A190F900F900F900F901D
:100E40008E149F0481F788E698E00E94221962E0E0
:100E500070E080E090E017D58BCE7A949F938F93CB
:100E6000AAECB7E0BF93AF930E940A191F927F923A
:100E7000ADEDB7E0BF93AF930E940A190FB6F89497
:100E8000DEBF0FBECDBF7110EACE6ECE82E0E82E7F
:100E9000F12C46CEC95CDE4F0FB6F894DEBF0FBE14
:100EA000CDBFDF91CF911F910F91FF90EF90DF9019
:100EB000CF90BF90AF909F908F907F906F905F90FA
:100EC0004F903F902F900895CF93DF93C82F81E0EC
:100ED000E5DC61E088E16CD460E085E369D483E01F
:100EE000ECDC8C2FEADC8FEFE8DCC82FD0E0DC2FC5
:100EF000CC278FEFE2DCC82B61E085E359D484E096
:100F0000CDDCCE01DF91CF9108950F931F93CF9346
:100F1000DF931F92CDB7DEB7182F062F81E04983EC
:100F2000BDDC61E088E144D460E085E341D482E047
:100F3000C4DC812FC2DC802FC0DC4981842FBDDC62
:100F400061E085E335D484E00F90DF91CF911F916C
:100F50000F91A4CCCF93DF93C82FD62F80E198E0D8
:100F60000E9422194D2F6C2F8BE0CFDF1F92DF9351
:100F70001F92CF9383E298E09F938F930E940A1968
:100F80000F900F900F900F900F900F90DF91CF91D7
:100F9000089582E498E00E94221987E1E1D3892B29
:100FA000E1F344E068E080E0B0DF62E070E080E020
:100FB00090E069D487E1D4D3892BE1F340E068E97C
:100FC00083E0A3DF64E170E080E090E05CD441E87E
:100FD0006BEB85E09ADF45E560E082E096DF60E05C
:100FE00080E0B8DF87E598E00C9422198AE698E063
:100FF0000E94221960E086E1DBD364E170E080E0CA
:1010000090E041D461E088E1D3D361E085E3D0D3BF
:1010100061E086E1CDD387E1A3D3892BE1F38EE7AD
:1010200098E00E94221962E070E080E090E02BD40A
:1010300062E382E38FDFADCFCF92DF92EF92FF9238
:101040000F931F93CF93DF936C017A018B01C0E064
:10105000D0E0CE15DF0589F0D8016D918D01D60164
:10106000ED91FC910190F081E02DC6011995892B3D
:1010700011F47E0102C02196ECCFC701DF91CF9120
:101080001F910F91FF90EF90DF90CF900895FC019A
:10109000A089B1898C91A689B78982FD13C02C9152
:1010A000818D90E001966CED70E00E94A818928D01
:1010B000981749F0918DDF01A90FB11D5D962C9312
:1010C000818F08958C910895FC01538D448D252FB7
:1010D00030E0842F90E0821B930B541718F0895353
:1010E0009F4F089501970895FC01918D828D981767
:1010F00099F0828DDF01A80FB11D5D968C91228D34
:101100002F5F91E02C3D08F490E034E2939F200D96
:101110001124228F90E008958FEF9FEF0895FC0136
:10112000918D828D981731F0828DE80FF11D858D9C
:1011300090E008958FEF9FEF0895FC01918D228D2F
:10114000892F90E084529F4F821B91096CED70E0D3
:101150000C94A81808958CE899E0EFDF21E0892B22
:1011600009F420E0822F08958DE49BE0E6DF21E082
:10117000892B09F420E0822F08958EE09DE0DDDFC9
:1011800021E0892B09F420E0822F0895FC01848D51
:10119000DF01A80FB11DA750BF4F2C91848D90E0A7
:1011A000019668EC70E00E94BC18848FA689B7890C
:1011B0002C93A089B1898C9180648C93938D848DBC
:1011C000981306C00288F389E02D80818F7D80838B
:1011D0000895FF920F931F93CF93DF93EC0181E06B
:1011E000888F9B8D8C8D981305C0E889F989808143
:1011F00085FD25C0162F8B8D90E0019668EC70E080
:101200000E94BC18082FF82E8C8DF8120BC00FB658
:1012100007FCFACFE889F989808185FFF5CFCE01F7
:10122000B5DFF2CF8B8DFE01E80FF11DE750FF4FC8
:1012300010830B8FEA89FB898081806207C0EE8969
:10124000FF896083E889F98980818064808381E0F7
:1012500090E0DF91CF911F910F91FF900895CF9370
:10126000DF93EC01888D8823C1F0EA89FB898081B6
:1012700085FD05C0A889B9898C9186FD0EC00FB681
:1012800007FCF5CF808185FFF2CFA889B9898C91C1
:1012900085FFEDCFCE017ADFE8CFDF91CF910895C2
:1012A00080E090E0892B19F068DF81111BC080E09D
:1012B00090E0892B19F058DF811117C080E090E091
:1012C000892B19F048DF811113C080E090E0892B51
:1012D000A1F080E090E0892B81F00E940000811154
:1012E0000AC008950E940000E2CF0E940000E6CFED
:1012F0000E940000EACF0C940000089590E0FC01E9
:101300003197E231F10508F04EC08827E757FF4FCB
:101310008F4F0C94F118809180008F7703C08091DB
:1013200080008F7D80938000089580918000877F6A
:10133000F9CF84B58F7702C084B58F7D84BD0895C1
:101340008091B0008F7703C08091B0008F7D809333
:10135000B0000895809190008F7707C08091900031
:101360008F7D03C080919000877F809390000895C7
:101370008091A0008F7707C08091A0008F7D03C06F
:101380008091A000877F8093A00008958091200124
:101390008F7707C0809120018F7D03C0809120014D
:1013A000877F8093200108953FB7F89480913D098D
:1013B00090913E09A0913F09B091400926B5A89BA4
:1013C00005C02F3F19F00196A11DB11D3FBFBA2FD7
:1013D000A92F982F8827820F911DA11DB11DBC0137
:1013E000CD0143E0660F771F881F991F4A95D1F7FB
:1013F000089585ED8093BC008091BC0084FDFCCFF6
:1014000010926709089540911309262F30E0240FA8
:10141000311D21323105DCF4209167092430C9F4F3
:10142000FC0180E090E0861758F430911309219177
:10143000DC01AF50B74FA30FB11D2C930196F3CF32
:1014400080911309680F6093130980E0089581E08B
:10145000089582E008950895E091910880919008A0
:10146000E81730F4F0E0EF52F74F808190E00895F4
:101470008FEF9FEF089590919108809190089817B1
:1014800050F4E92FF0E0EF52F74F208130E09F5FFA
:101490009093910802C02FEF3FEFC901089580910A
:1014A000900890E020919108821B91090895CF92B5
:1014B000DF92EF92FF920F931F93CF93DF937C0104
:1014C000262F972F8A0180916809882391F0C62FD3
:1014D000D72F6E01C40ED51ECC15DD0569F06991BC
:1014E000D701ED91FC910190F081E02DC701199594
:1014F000F3CF642F822F87DFC801DF91CF911F9137
:101500000F91FF90EF90DF90CF900895CF93DF93EE
:101510001F92CDB7DEB76983209168092223D1F0ED
:1015200020918B09203240F021E030E0FC01338330
:10153000228380E090E014C080916909E82FF0E0F8
:10154000E659F64F998190838F5F80936909809364
:101550008B0904C061E0CE01019655DF81E090E087
:101560000F90DF91CF910895089580E090E0089565
:101570000E94F9181F920F920FB60F9211240BB60A
:101580000F922F933F934F935F936F937F938F931C
:101590009F93AF93BF93EF93FF938CE899E0F6DDB1
:1015A000FF91EF91BF91AF919F918F917F916F913B
:1015B0005F914F913F912F910F900BBE0F900FBEF7
:1015C0000F901F9018951F920F920FB60F92112433
:1015D0000BB60F922F933F934F935F936F937F932D
:1015E0008F939F93AF93BF93EF93FF938CE899E012
:1015F0004EDDFF91EF91BF91AF919F918F917F91C0
:101600006F915F914F913F912F910F900BBE0F9073
:101610000FBE0F901F9018951F920F920FB60F924A
:1016200011240BB60F922F933F934F935F936F93B9
:101630007F938F939F93AF93BF93EF93FF938DE42B
:101640009BE0A4DDFF91EF91BF91AF919F918F91AE
:101650007F916F915F914F913F912F910F900BBEB2
:101660000F900FBE0F901F9018951F920F920FB6FC
:101670000F9211240BB60F922F933F934F935F93CA
:101680006F937F938F939F93AF93BF93EF93FF934A
:101690008DE49BE0FCDCFF91EF91BF91AF919F91B6
:1016A0008F917F916F915F914F913F912F910F900B
:1016B0000BBE0F900FBE0F901F9018951F920F92A8
:1016C0000FB60F9211240BB60F922F933F934F93A7
:1016D0005F936F937F938F939F93AF93BF93EF939A
:1016E000FF938EE09DE052DDFF91EF91BF91AF91AE
:1016F0009F918F917F916F915F914F913F912F912A
:101700000F900BBE0F900FBE0F901F9018951F9259
:101710000F920FB60F9211240BB60F922F933F9397
:101720004F935F936F937F938F939F93AF93BF93E9
:10173000EF93FF938EE09DE0AADCFF91EF91BF91C4
:10174000AF919F918F917F916F915F914F913F9159
:101750002F910F900BBE0F900FBE0F901F901895FA
:10176000CF93DF93282F30E0F901EC5EFD4F849199
:10177000F901E05BFE4FD491F901E856FE4FC491A8
:10178000CC2389F08111BADDEC2FF0E0EE0FFF1FC2
:10179000E650FE4FA591B491EC91ED2381E090E0ED
:1017A00021F480E002C080E090E0DF91CF910895C5
:1017B0001F93CF93DF93282F30E0F901EC5EFD4FAC
:1017C0008491F901E05BFE4FD491F901E856FE4F98
:1017D000C491CC23C1F0162F811190DDEC2FF0E0E5
:1017E000EE0FFF1FE052FE4FA591B4918FB7F89412
:1017F000111105C09C91ED2FE095E92302C0EC91F9
:10180000ED2BEC938FBFDF91CF911F910895CF9374
:10181000DF9390E0FC01E05BFE4F2491FC01E85671
:10182000FE4F8491882361F190E0880F991FFC019D
:10183000EA5CFE4FC591D491FC01E052FE4FA591A8
:10184000B491611109C09FB7F894888120958223D3
:101850008883EC912E230BC0623061F49FB7F8941B
:101860003881822F809583238883EC912E2B2C93B3
:101870009FBF06C08FB7F894E8812E2B28838FBFB7
:10188000DF91CF9108958F929F92AF92BF92CF92A6
:10189000DF92EF92FF926B017C0186DD4B015C01D0
:1018A000C114D104E104F104E9F07EDDDC01CB01D7
:1018B00088199909AA09BB09883E9340A105B10579
:1018C00078F321E0C21AD108E108F10888EE880E09
:1018D00083E0981EA11CB11CC114D104E104F104E1
:1018E00021F7DECFFF90EF90DF90CF90BF90AF90C9
:1018F0009F908F9008951F920F920FB60F92112410
:101900002F933F938F939F93AF93BF938091390908
:1019100090913A09A0913B09B0913C093091380966
:1019200026E0230F2D3720F40296A11DB11D05C01E
:1019300029E8230F0396A11DB11D20933809809338
:10194000390990933A09A0933B09B0933C098091DF
:101950003D0990913E09A0913F09B091400901963F
:10196000A11DB11D80933D0990933E09A0933F09AD
:10197000B0934009BF91AF919F918F913F912F916B
:101980000F900FBE0F901F9018951F920F920FB6D9
:101990000F9211240BB60F922F933F934F935F93A7
:1019A0006F937F938F939F93AF93BF93EF93FF9327
:1019B0008091B900887F803609F49CC068F5883230
:1019C00009F45BC090F4803109F454C038F48823E2
:1019D00009F4F6C0883009F44DC0F5C0883109F427
:1019E0004CC0803209F45DC0EEC0803409F468C098
:1019F00048F4803309F455C0883309F0E4C080937B
:101A00006509D8C0803509F44FC0883509F45DC038
:101A1000883409F0D8C0D6C0883909F4C7C0A8F402
:101A2000883709F467C038F4883609F463C0803712
:101A300009F460C0C8C0883809F4B8C0803909F416
:101A40005FC0803809F0BFC05BC0803B09F486C02E
:101A500038F4803A09F466C0883A09F47FC0B3C00C
:101A6000803C09F4A7C0883C09F4A4C0883B09F471
:101A70008AC0A9C08091420910C0909164098091E8
:101A80006309981770F5E091640981E08E0F8093E7
:101A90006409F0E0ED5BF64F80818093BB0085EC3C
:101AA00086C0809365098EC0E091640981E08E0F45
:101AB000809364098091BB00F0E0ED5BF64F80837A
:101AC00090916409809163096EC0E091640981E09E
:101AD0008E0F809364098091BB00F0E0ED5BF64FC0
:101AE00080838091660981116DC081E080934109F6
:101AF00084EA61C083E08093670910923709CFCFF1
:101B000080913709803208F051C0E091370981E0B7
:101B10008E0F809337098091BB00F0E0E95EF64FAD
:101B20008083BDCF85EC8093BC00109267098091C3
:101B30003709803230F4E0913709F0E0E95EF64F82
:101B400010826091370970E0E0911509F091160953
:101B500087E199E019951092370935C084E08093A8
:101B600067091092140910921309E0911109F0917C
:101B70001209199580911309811105C081E08093A4
:101B800013091092F108E091140981E08E0F8093FF
:101B90001409F0E0EF50F74F80818093BB009091E3
:101BA000140980911309981708F479CF85E8809378
:101BB000BC0009C085EC8093BC001092670903C08B
:101BC0001092650916DCFF91EF91BF91AF919F9143
:101BD0008F917F916F915F914F913F912F910F90D6
:101BE0000BBE0F900FBE0F901F901895CF92DF92F3
:101BF000EF92FF920F931F93CF93DF93EC016A0153
:101C00007B0160E874E88EE190E0A70196010E94F4
:101C1000CF1889019A01015011092109310936951E
:101C20002795179507959801E889F98982E08083BF
:101C300001151041A8F0E889F989108260E472E486
:101C40008FE090E0A70196010E94CF18DA01C90148
:101C50000197A109B109B695A795979587959C011C
:101C6000EC85FD853083EE85FF852083188EEC8919
:101C7000FD8986E08083EA89FB8980818061808399
:101C8000EA89FB89808188608083EA89FB89808179
:101C900080688083EA89FB8980818F7D8083DF91E2
:101CA000CF911F910F91FF90EF90DF90CF9008950B
:101CB000382F20918B0990918A09213208F049C070
:101CC000809167098111FCCF42E04093670930930E
:101CD00066093FEF30936509109264092093630908
:101CE000AAE6B9E043E459E0FA013E2F341B32176B
:101CF00018F43D913193F9CF109242092091420995
:101D0000990F922B9093420990914109913061F47F
:101D100010924109909142099093BB009091BC00B0
:101D200093FDF8CF95EC01C095EE9093BC00909197
:101D300067099230E1F3909165099F3F79F08091B6
:101D40006509803241F080916509803331F084E08B
:101D500005C081E003C082E001C083E01092690900
:101D600010928B09109268090895CF93DF93CDB735
:101D7000DEB7C350D1400FB6F894DEBF0FBECDBF63
:101D8000789484B5826084BD84B5816084BD85B556
:101D9000826085BD85B5816085BD80916E00816062
:101DA00080936E0010928100809181008260809308
:101DB000810080918100816080938100809180000A
:101DC0008160809380008091B10084608093B10035
:101DD0008091B00081608093B0008091910082601A
:101DE0008093910080919100816080939100809117
:101DF00090008160809390008091A1008260809328
:101E0000A1008091A10081608093A1008091A00039
:101E100081608093A00080912101826080932101E4
:101E20008091210181608093210180912001816056
:101E30008093200180917A00846080937A00809161
:101E40007A00826080937A0080917A008E7F8093FE
:101E50007A0080917A00806880937A001092C100A5
:101E600061E08DE0D4DC61E087E4D1DC61E08AE10F
:101E7000CEDC61E08CE0CBDC61E08AE0C8DC61E0D4
:101E80008BE0C5DC61E08BE093DC62E08EE1BFDCDF
:101E900062E08DE1BCDC62E08CE1B9DC62E08BE108
:101EA000B6DC62E087E1B3DC61E088E1B0DC61E0F0
:101EB00086E1ADDC61E085E3AADC61E086E3A7DCD6
:101EC00061E088E175DC61E085E372DC61E08AE075
:101ED0006FDC60E08AE16CDCF12C00E010E08DE169
:101EE0003FDC892B39F40F5F1F4FF0946F2D8DE08D
:101EF0005FDC02C000E010E064E670E080E090E0AB
:101F0000C2DC0E3111055CF361E08DE051DC61E073
:101F10008AE14EDC8DE124DC892BE1F368EE73E08D
:101F200080E090E0B0DC40E056E960E070E08EE0F8
:101F30009DE05CDE40E056E960E070E08DE49BE00F
:101F400055DE40E855E260E070E08CE899E04EDE56
:101F500060E070E085E691E063D70E94830360E073
:101F60008BE026DC1092910810929008109269097B
:101F700010928B091092670981E080936609109294
:101F8000410961E084E114DC61E085E111DC8091CC
:101F9000B9008E7F8093B9008091B9008D7F8093C6
:101FA000B90080E28093B80085E48093BC001FB73D
:101FB000F89480919208811123C0EDECF1E08491B6
:101FC000E5E8F1E09491E82FF0E0EE0FFF1FEA5C06
:101FD000FE4FA591B491EC91E92319F461E085E3FA
:101FE000E7DB61E085E313DC8CB580618CBD8CB5EB
:101FF00080648CBD61E084E30ADC61E083E307DC9C
:10200000809192088F5F809392081FBF81E00E94A9
:102010004E048CB5837F8CBD8CB58F7D8CBD82E3E7
:1020200090E0909395088093940820E43FE13093EA
:10203000970820939608909399088093980880EDCC
:1020400097E090939B0880939A0884E690E09093A1
:102050009D0880939C0880EB94E090939F08809368
:102060009E088BE490E09093A1088093A0088AE2F8
:1020700092E00E942219A0919608B0919708E091F1
:102080009808F091990860919A0870919B08409186
:102090009C0850919D0820919E0830919F08809146
:1020A000A0089091A108009194081091950810162D
:1020B0001106ACF41A161B06ACF41E161F06ACF47F
:1020C00016161706ACF414161506ACF41216130601
:1020D000ACF418161906ACF480E090E014C08AE065
:1020E00090E011C08BE090E00EC08CE090E00BC05F
:1020F0008DE090E008C08EE090E005C08FE090E0B9
:1021000002C080E190E00E94DC0280E492E00E9444
:102110002219009196081091970880919808909143
:1021200099088436910589F034F4C29709F088C083
:1021300084E090E00FC0883C910551F080399140D7
:1021400009F07EC087E090E005C085E090E002C025
:1021500086E090E00E943904811103C083E090E0A2
:1021600074C062E380E20E94A103982F62E383E2DD
:10217000CD5FDE4F9883C350D1400E94A103CD5F55
:10218000DE4F9881C350D140292F207F21F4209128
:102190009308207F922B282F277F42E360E2892F2C
:1021A000877FCD5FDE4F2883C350D1400E940B0450
:1021B00042E363E2CD5FDE4F2881C350D140822FDE
:1021C00088600E940B04003A8FE0180789F034F40D
:1021D000003D1740C1F580E090E00FC00034FFE102
:1021E0001F0749F000381E4371F583E090E005C0F9
:1021F00081E090E002C082E090E00E942404882305
:1022000009F4ACCF62E383E20E94A10342E363E2FC
:1022100080680E940B0462E383E20E94A10342E310
:1022200063E28F7B0E940B0462E380E20E94A103C1
:1022300042E360E287600E940B0480E090E005C00A
:102240008CE090E002C08BE090E00E94DC028DE424
:1022500092E0F8D700919A0810919B0860919C0831
:1022600070919D0888EE93E087D7CB0101978F3F4F
:10227000910509F078F442ED65E10E940B04003D00
:10228000174059F442ED66E18AE10E940B0480E0B8
:1022900090E005C08EE090E002C08DE090E00E94EA
:1022A000DC028BE592E0CED700919E0810919F084A
:1022B0008091A0089091A1088B34910509F03FC04E
:1022C0004CE360E088E10E940B04043C99E01907AC
:1022D00029F16CF4003BF4E01F07E1F00C3627E035
:1022E0001207D1F00438134069F580E01CC0083FA4
:1022F00091E11907A9F02CF4003A1F4019F580E884
:1023000012C00C3725E1120769F00C3D1E41D1F4D3
:1023100080EE09C080E207C080E405C080E603C00B
:1023200080EA01C080EC4CE361E00E940B044CE3C6
:1023300062E081E00E940B0480E090E005C080E153
:1023400090E002C08FE090E00E94DC0289E692E01B
:1023500079D781E08093A50895E09093A2088093B7
:10236000A30882E18093A40884E08093A60881E119
:102370008093A70888E18093A80840ED60E085E09D
:102380000E940B0440ED61E081E00E940B0440EDEF
:1023900062E082E10E940B0440ED64E084E00E9470
:1023A0000B0440ED65E081E10E940B0440ED66E026
:1023B00088E10E940B0440ED63E081E00E940B0481
:1023C00024E4C22E23E0D22E36E5A32E33E0B32E32
:1023D0008E010F5F1F4F9EE1900FCE5FDE4F9883FF
:1023E000C250D1404E01E1E18E0E911C8DE1B8D971
:1023F000892B19F487E892E00DC08CE1B1D9892BC3
:1024000019F489E992E006C08BE1AAD9892B41F43D
:1024100089EA92E017D768EC70E080E090E033DA68
:102420008EE09DE00E949D08892B09F46BC48EE02C
:102430009DE00E9474088633910509F410C40CF0E5
:1024400044C08333910509F4EEC064F481339105EF
:1024500009F453C0C29709F04EC499E8E92E93E1FC
:10246000F92EDCC08433910509F406C2C59709F042
:1024700042C460ED80E00E94A1038093A20860ED59
:1024800081E00E94A1038093A30860ED82E00E9496
:10249000A1038093A40860ED84E00E94A1038093CF
:1024A000A60860ED85E00E94A1038093A70860ED77
:1024B00086E00E94A1038093A80860ED83E00E945B
:1024C000A1038093A508F8013EC38F33910509F459
:1024D000F7C354F48733910509F4DBC3C89709F0B7
:1024E0000AC40E94F6040AC48834910509F4E8C3BA
:1024F0008836910509F4E4C3FEC381E1EFEAF4E014
:10250000D80101900D928A95E1F760E08AE050D9F8
:102510008BEA0E945D048FEF0E945D048FEF0E94A2
:102520005D048FEF0E945D048FEF0E945D04863191
:1025300029F41F928F9389EB92E00BC0873129F425
:102540001F928F9389ED92E004C01F928F938AEFC0
:1025500092E09F938F935ED60F900F900F900F9005
:1025600061E08AE025D989E193E06CD60E94EE040F
:102570000E949D0460E08AE01BD980E20E945D0415
:1025800080E00E945D0480E00E945D0480E00E9483
:102590005D0461E08AE00CD90E949D040E94EE0473
:1025A00020E130E0A80160E070E0CB010E94AD04C2
:1025B0000E94E60480E1F80111928A95E9F720E192
:1025C00030E0A80160E070E0CB010E94640488E381
:1025D00093E09F938F931ED678010F900F90F70191
:1025E00081917F01082E000C990B27D6E814F9047D
:1025F000B1F732C361E070E080E090E044D98CE84C
:1026000099E00E949D08892B49F08CE899E00E948E
:102610007408682F8EE09DE00E94E908F1E0EF1A4F
:10262000F10841F76BC361E08DE0C2D862E38BE251
:102630000E94A1031092BF088093C00862E38AE25F
:102640000E94A1032091BF083091C008282BA4E06C
:1026500035952795AA95E1F73093C0082093BF08D8
:1026600062E389E20E94A1031092C1088093C2082C
:1026700062E388E20E94A1032091C1083091C20860
:10268000282B319521953109B4E035952795BA95D8
:10269000E1F73093C2082093C10862E38DE20E9403
:1026A000A1031092C3088093C40862E38CE20E94E5
:1026B000A1032091C3083091C408282B84E03595EC
:1026C00027958A95E1F73195219531093093C40812
:1026D0002093C30862ED8DE10E94A1031092C5080A
:1026E0008093C60862ED8EE10E94A1032091C50887
:1026F0003091C608282B3093C6082093C50862ED98
:102700008FE10E94A1031092C7088093C80862ED70
:1027100080E20E94A1032091C7083091C808282BAD
:102720003093C8082093C70862ED81E20E94A1039C
:102730001092C9088093CA0862ED82E20E94A10348
:102740002091C9083091CA08282B3093CA082093D9
:10275000C9086CE383E00E94A1031092CB08809328
:10276000CC086CE384E00E94A1032091CB08309157
:10277000CC08282B3093CC082093CB086CE387E05F
:102780000E94A1031092CD088093CE086CE388E0EC
:102790000E94A1032091CD083091CE08282B3093C0
:1027A000CE082093CD086CE385E00E94A10310922F
:1027B000CF088093D0086CE386E00E94A1032091AB
:1027C000CF083091D008282B3093D0082093CF0821
:1027D0004CE362E081E00E940B048FEB98E0909361
:1027E000BE088093BD0880E090E0DC01A154B74FA3
:1027F00011962C911197FC01E755F74F22832C91EC
:10280000238302968231910581F781E48093A908A0
:102810001092AA08F9EAEF2EF8E0FF2EF70120E067
:1028200030E08191280F311D98E0ED3BF907C9F7A1
:10283000832F9927820F911D890F80958093AA0875
:10284000DF92CF92E7D40F900F90FDEBEF16F8E0F8
:10285000FF0669F0F70181917F011F928F93BF926C
:10286000AF92D8D40F900F900F900F90EECF60E002
:102870008DE00E94D80B42C20E9483038EE593E054
:10288000E1D48BE693E0DED40E94F6077CE0F72EDD
:1028900080E00E9464078115984041F040E068E0C4
:1028A00080E00E948507FA94F110F2CF6CE0F62EDA
:1028B00083E00E9464078115984941F040E068E98F
:1028C00083E00E948507FA94F110F2CFF12C8BE09F
:1028D0000E946407C29751F042E360E08BE00E94DF
:1028E0008507F394FCE0FF12F2CF1BC12BE0F21638
:1028F00009F417C10E94F60789E994E0A3D460E0C7
:1029000086E10E94D80B68EC70E080E090E00E94C5
:10291000430C8FEF0E945D0461E085E30E94D80BB9
:1029200061E088E10E94D80B61E086E10E94D80B4B
:1029300068EC70E080E090E00E94430C60E280E28E
:102940000E94AA0740E268E080E00E94850787E1D4
:102950000E94B00B892BD9F360E088E10E94D80B6C
:1029600081E00E944E0483E50E945D048FEE0E9488
:102970005D048EE60E945D0484E20E945D0480E0B6
:102980000E945D0480E00E945D0480E00E945D047E
:1029900080E00E945D0464EF71E080E090E00E94BE
:1029A000430C61E088E10E94D80B60E088E10E945E
:1029B000D80B85E40E945D0488E70E945D0489E6E7
:1029C0000E945D0484E70E945D0480E00E945D0433
:1029D00080E00E945D0480E00E945D0480E00E942F
:1029E0005D0464EF71E080E090E00E94430C61E0E0
:1029F00088E10E94D80B87E793E024D40E94C9079E
:102A00008BE893E01FD420E130E0A80160E070E1A2
:102A100080E090E00E94640484E00E944E04412C17
:102A200050E1552E612C712C61E088E10E94D80B99
:102A300061E085E30E94D80B20E031E0A801C301EA
:102A4000B2010E946404180128E0CF5FDE4F2883A2
:102A5000C150D14087E10E94B00B892BD9F360E0CF
:102A600088E10E94D80BE12CF12CF101EE0DFF1D45
:102A700080810E945D048FEFE81AF80A90E2E9165F
:102A8000F10499F761E088E10E94D80BCF5FDE4F37
:102A90002881C150D1402150CF5FDE4F2883C150E3
:102AA000D14080E2280E311C2111D4CF9FEF591A5A
:102AB000690A790A4114E9E65E06E2E06E067104ED
:102AC00009F0B2CF8BE993E0BDD340E4F42E87E167
:102AD0000E94B00B892BE1F060E088E10E94D80BE6
:102AE00030E2E32E60E088E10E94D80B80E00E9493
:102AF0005D0461E088E10E94D80B61E085E30E94FB
:102B0000D80BEA94E110EECF61E088E10E94D80B87
:102B1000FA94F110DCCF82EB93E094D387EC93E04E
:102B200091D361E08CE00E94D80B2CEEE22EF12CC8
:102B3000C7010197F1F760E08CE00E94D80BC70154
:102B40000197F1F7DBC01192CE5FDE4F2881C250B2
:102B5000D1402E13F8CF85ED93E09F938F935AD3F6
:102B60008091A808982F92959F70905D99838F709F
:102B7000805D8A832DE22B838091A708982F929500
:102B80009F70905D9C838F70805D8D832E8380917C
:102B9000A608982F92959F70905D9F838F70805D9F
:102BA000888780E289878091A408982F92959F70EA
:102BB000905D9A878F70805D8B872AE32C87809148
:102BC000A308982F92959F70905D9D878F70805D70
:102BD0008E872F878091A208982F92959F70905D85
:102BE000988B8F70805D898B1F930F9388ED93E096
:102BF0009F938F930FD38BED93E09F938F930AD383
:102C00000FB6F894DEBF0FBECDBFE091A5088E2FA2
:102C100090E0FC013197E730F105F0F48827EE5899
:102C2000FF4F8F4FDEC28EED93E011C082EE93E036
:102C30000EC086EE93E00BC08AEE93E008C08EEEE5
:102C400093E005C082EF93E002C086EF93E09F938C
:102C50008F93E0D20F900F9088E698E04EC095E0F9
:102C6000F92E61E087E40E94D80B64EF71E080E008
:102C700090E00E94430C60E087E40E94D80B64EF70
:102C800071E080E090E00E94430CFA94F110E9CFEB
:102C900035C089E8E82E83E1F82E91E0E91AF108C1
:102CA00069F161E070E080E090E00E94430C8EE109
:102CB0000E94B00B019789F78AEF93E0C3D2EDCF62
:102CC0008DE094E0BFD28EE194E0BCD28BE294E040
:102CD000B9D288E394E0B6D287E494E0B3D284E535
:102CE00094E0B0D283E694E0ADD282E794E0AAD239
:102CF00085E894E002C08EE894E0A4D28EE09DE0E6
:102D00000E942F0962E070E080E090E00E94430C96
:102D10000E9450096BCBECE8F9E01382128288EE36
:102D200093E0A0E0B0E084839583A683B7832AE094
:102D300032E03183208345ED50E05587448744EDF0
:102D400050E05787468740ED50E0518B408B41ED76
:102D500050E0538B428B42ED50E0558B448B46ED57
:102D600050E0578B468B118E128E138E148EEDE42D
:102D7000FBE01382128284839583A683B783318319
:102D800020834DEC50E0558744874CEC50E057874A
:102D9000468748EC50E0518B408B49EC50E0538B18
:102DA000428B4AEC50E0558B448B4EEC50E0578BF5
:102DB000468B118E128E138E148EEEE0FDE0138280
:102DC000128284839583A683B7833183208325EC85
:102DD00030E03587248724EC30E03787268720ECE5
:102DE00030E0318B208B21EC30E0338B228B22ECD6
:102DF00030E0358B248B26EC30E0378B268B118E20
:102E0000128E138E148EEFECFEE0138212828483F6
:102E10009583A683B7838CE192E0918380830895A4
:102E20000F931F93CF93DF93009731F461157105D2
:102E300019F480E090E039C08B01EC016EE070E0A5
:102E400081E090E037D0FC01892B99F380E88383FF
:102E50000115110571F01387028781E88383809142
:102E6000DB0E9091DC0E892B21F4F093DC0EE093C5
:102E7000DB0E2097C9F0D187C0878381826083836E
:102E80008091DD0E9091DE0E892B71F4F093DE0EB1
:102E9000E093DD0E8091DF0E9091E00E892B21F4FE
:102EA000F093E00EE093DF0ECF01DF91CF911F9101
:102EB0000F9108950F931F93CF93DF93869F800107
:102EC000879F100D969F100D1124C8010DD0EC01A5
:102ED000009721F0A80160E070E033D1CE01DF91CE
:102EE000CF911F910F910895CF93DF938230910579
:102EF00010F482E090E0E091E30EF091E40E20E027
:102F000030E0C0E0D0E0309711F1408151814817A6
:102F10005907C0F04817590761F4828193812097BF
:102F200019F09B838A832BC09093E40E8093E30E69
:102F300026C02115310519F04217530718F49A01DC
:102F4000BE01DF01EF010280F381E02DDCCF21150E
:102F5000310509F1281B390B2430310590F4129604
:102F60008D919C9113976115710521F0FB0193835D
:102F7000828304C09093E40E8093E30EFD013296A9
:102F800044C0FD01E20FF31F819391932250310958
:102F90002D933C933AC02091E10E3091E20E232B09
:102FA00041F420910202309103023093E20E20930B
:102FB000E10E20910002309101022115310541F40A
:102FC0002DB73EB74091040250910502241B350BEA
:102FD000E091E10EF091E20EE217F307A0F42E1B50
:102FE0003F0B2817390778F0AC014E5F5F4F24176D
:102FF000350748F04E0F5F1F5093E20E4093E10EED
:103000008193919302C0E0E0F0E0CF01DF91CF9196
:1030100008950F931F93CF93DF93009709F48CC00B
:10302000FC013297138212820091E30E1091E40E9C
:103030000115110581F420813181820F931F2091A8
:10304000E10E3091E20E2817390779F5F093E20E80
:10305000E093E10E71C0D80140E050E0AE17BF0729
:1030600050F412962D913C911397AD012115310525
:1030700009F1D901F3CF9D01DA0133832283608105
:103080007181860F971F8217930769F4EC012881DD
:103090003981260F371F2E5F3F4F318320838A816E
:1030A0009B8193838283452B29F4F093E40EE09374
:1030B000E30E42C01396FC93EE931297ED014991F3
:1030C00059919E01240F351FE217F30771F4808197
:1030D0009181840F951F029611969C938E93828105
:1030E000938113969C938E931297E0E0F0E0D801C1
:1030F00012968D919C911397009719F0F8018C010D
:10310000F6CF8D919C9198012E5F3F4F820F931FB8
:103110002091E10E3091E20E2817390769F43097BB
:1031200029F41092E40E1092E30E02C01382128270
:103130001093E20E0093E10EDF91CF911F910F915A
:103140000895DC0101C06D9341505040E0F70895AF
:10315000AA1BBB1B51E107C0AA1FBB1FA617B707BD
:1031600010F0A61BB70B881F991F5A95A9F78095D9
:103170009095BC01CD01089597FB072E16F400949D
:1031800006D077FD08D0E4DF07FC05D03EF490952B
:1031900081959F4F0895709561957F4F0895A1E2A5
:1031A0001A2EAA1BBB1BFD010DC0AA1FBB1FEE1FC1
:1031B000FF1FA217B307E407F50720F0A21BB30B0C
:1031C000E40BF50B661F771F881F991F1A9469F788
:1031D00060957095809590959B01AC01BD01CF01E4
:1031E0000895EE0FFF1F881F8BBF0790F691E02D0B
:1031F000199481E090E0F894EFC2FB01DC0104C077
:103200008D910190801921F441505040C8F7881BDE
:10321000990B0895CF93DF93CDB7DEB7AE014A5F28
:103220005F4FFA0161917191AF018091DD0E909134
:10323000DE0E38D0DF91CF9108956091DD0E709150
:10324000DE0E34C20F931F93CF93DF93E091DD0E18
:10325000F091DE0E238121FF1BC08C01D0E0C0E085
:10326000F80181918F016091DD0E7091DE0EDB011E
:103270001896ED91FC911997882331F01995892BB7
:1032800079F3DFEFCFEFECCF8AE01995892B19F0B6
:103290008FEF9FEF02C08D2F9C2FDF91CF911F9159
:1032A0000F9108952F923F924F925F926F927F926B
:1032B0008F929F92AF92BF92CF92DF92EF92FF9246
:1032C0000F931F93CF93DF93CDB7DEB72C970FB635
:1032D000F894DEBF0FBECDBF7C016B018A01FC01FB
:1032E00017821682838181FFB0C1CE0101964C0105
:1032F000F7019381F60193FD859193FF81916F0111
:10330000882309F49EC1853239F493FD859193FF9A
:1033100081916F01853221F4B70190E0C7D1E8CFE8
:10332000512C312C20E02032A0F48B3269F030F4A3
:10333000803259F0833269F420612CC08D3239F02B
:10334000803339F4216026C02260246023C02860C5
:1033500021C027FD27C030ED380F3A3078F426FF22
:1033600006C0FAE05F9E300D1124532E13C08AE090
:10337000389E300D1124332E20620CC08E3221F481
:1033800026FD5FC1206406C08C3611F4206802C09F
:10339000883641F4F60193FD859193FF81916F0189
:1033A0008111C1CF982F9F7D9554933028F40C5FE5
:1033B0001F4FFFE3F9830DC0833631F0833771F07F
:1033C000833509F057C021C0F801808189830E5FE1
:1033D0001F4F44244394512C540114C03801F2E08F
:1033E0006F0E711CF801A080B18026FF03C0652D0F
:1033F00070E002C06FEF7FEFC5012C874CD12C012C
:1034000083012C852F77222E16C03801F2E06F0E33
:10341000711CF801A080B18026FF03C0652D70E00B
:1034200002C06FEF7FEFC5012C872AD12C012C85BC
:103430002068222E830123FC19C0832D90E04816BA
:103440005906A0F4B70180E290E030D13A94F5CF6C
:10345000F50127FC859127FE81915F01B70190E07E
:1034600025D131103A94F1E04F1A5108411451041A
:1034700079F7DEC0843611F0893631F5F80127FF7F
:1034800007C060817181828193810C5F1F4F08C0EA
:1034900060817181072E000C880B990B0E5F1F4F06
:1034A0002F76722E97FF09C0909580957095619543
:1034B0007F4F8F4F9F4F2068722E2AE030E0A4018B
:1034C0002DD1A82EA81843C0853729F42F7EB22EFF
:1034D0002AE030E025C0F22FF97FBF2E8F36C1F0F1
:1034E00018F4883579F0ADC0803719F0883721F0AD
:1034F000A8C02F2F2061B22EB4FE0DC08B2D84608A
:10350000B82E09C024FF0AC09F2F9660B92E06C0AE
:1035100028E030E005C020E130E002C020E132E0E8
:10352000F801B7FE07C060817181828193810C5FD1
:103530001F4F06C06081718180E090E00E5F1F4FD9
:10354000A401ECD0A82EA818FB2DFF777F2E76FEC5
:103550000BC0372D3E7FA51450F474FE0AC072FCD8
:1035600008C0372D3E7E05C0BA2C372D03C0BA2CBB
:1035700001C0B52C34FF0DC0FE01EA0DF11D8081A4
:10358000803311F4397E09C032FF06C0B394B3947E
:1035900004C0832F867809F0B39433FD12C030FF46
:1035A00006C05A2CB31418F4530C5B18B32CB31484
:1035B00060F4B70180E290E03C8778D0B3943C851A
:1035C000F6CFB31410F43B1801C0312C34FF11C0F6
:1035D000B70180E390E03C8769D03C8532FF16C09C
:1035E00031FD03C088E790E002C088E590E0B701B4
:1035F0000CC0832F867851F031FF02C08BE201C0EE
:1036000080E237FD8DE2B70190E050D0A51430F490
:10361000B70180E390E04AD05A94F8CFAA94F4011D
:10362000EA0DF11D8081B70190E040D0A110F6CFE6
:10363000332009F45DCEB70180E290E037D03A94B0
:10364000F7CFF7018681978102C08FEF9FEF2C960D
:103650000FB6F894DEBF0FBECDBFDF91CF911F91A3
:103660000F91FF90EF90DF90CF90BF90AF909F9021
:103670008F907F906F905F904F903F902F90089524
:10368000FC010590615070400110D8F7809590952D
:103690008E0F9F1F0895FC01615070400190011032
:1036A000D8F7809590958E0F9F1F08950F931F93C5
:1036B000CF93DF93FB01238121FD03C08FEF9FEFA9
:1036C00028C022FF16C046815781248135814217C8
:1036D000530744F4A081B1819D012F5F3F4F318397
:1036E00020838C93268137812F5F3F4F378326833A
:1036F00010C0EB01092F182F0084F185E02D1995DA
:10370000892BE1F68E819F8101969F838E83812F85
:10371000902FDF91CF911F910F910895FA01AA2761
:10372000283051F1203181F1E8946F936E7F6E5F04
:103730007F4F8F4F9F4FAF4FB1E03ED0B4E03CD0B2
:10374000670F781F891F9A1FA11D680F791F8A1F95
:10375000911DA11D6A0F711D811D911DA11D20D0FC
:1037600009F468943F912AE0269F11243019305DB6
:103770003193DEF6CF010895462F4770405D4193A7
:10378000B3E00FD0C9F7F6CF462F4F70405D4A33F4
:1037900018F0495D31FD4052419302D0A9F7EACFBC
:1037A000B4E0A6959795879577956795BA95C9F7EB
:1037B00000976105710508959B01AC010A2E0694DE
:1037C0005795479537952795BA95C9F7620F731F97
:0C37D000841F951FA01D0895F894FFCFE2
:1037DC000000E50E800000000000E9081C086408E9
:1037EC002F099D0874088F0800000000860A570AEC
:1037FC00B50A2B0A4F0A3B0A2C0A0D0A2053746196
:10380C007274205465737420494D552E2E2E0D0064
:10381C004C495333444820496E69740D0049544750
:10382C003332303020496E69740D00484D433538C1
:10383C00383320496E69740D0052544320736574FB
:10384C003A20323031382D31312D30342031323A6A
:10385C0030313A30350D0043656E746572204B651E
:10386C00792050726573730D004C656674204B653E
:10387C00792050726573730D0052696768204B652F
:10388C00792050726573730D000D0A466C61736874
:10389C0020323551363420446576696365204944BD
:1038AC003A25303278680D0A000D0A466C6173684F
:1038BC0020323551313238204465766963652049B0
:1038CC00443A25303278680D0A00466C61736820E2
:1038DC0052656164204944204661696C2120494449
:1038EC003A25303278680D0A00466C6173682057AF
:1038FC00726974653A2030313233343536373839A1
:10390C004142434445460D00466C61736820526544
:10391C0061643A000D0A0D0A0D0A0D0A494D552035
:10392C00646174613A003078253034582000565365
:10393C00313078785F496E69740D00496E69745640
:10394C0053313078780D004D703320567353696EB7
:10395C00655465737420656E640D00506C6179203C
:10396C004D50332073746172740D0056533130789E
:10397C00785F436C65617252616D2073746172740F
:10398C000D005653313078785F436C65617252612B
:10399C006D20656E640D00506C6179204D503320A4
:1039AC00656E640D003230002573002020005375C5
:1039BC006E004D6F6E005475650057656400546859
:1039CC007500467269005361740048656172742019
:1039DC0053656E736F7220486967680D000D0A316C
:1039EC002E20466C61736820546573740D00322E62
:1039FC002047505320546573740D00332E20494DCD
:103A0C005520546573740D00342E20436F64656328
:103A1C0020546573740D00352E2052544320546588
:103A2C0073740D00362E204D6F746F7220546573B5
:103A3C00740D00372E2048656172742054657374C0
:103A4C000D00382E20446F776E6C6F6164204D75BD
:103A5C007369630D00482E2048656C700D0065720B
:103A6C00726F7220636D640D004D7033205673536A
:103A7C00696E65546573742073746172740D0030D3
:103A8C0031323334353637383941424344454600B8
:103A9C00666F756E64206865616420454F54202004
:103AAC00656E6420726563696576650D0072656389
:103ABC006569766520637263206572720D00706BA8
:103ACC0074206E756D20657272203D202530327821
:103ADC002C7E706B3D253032780D0A00636865636F
:103AEC006B20637263206572720D00636865636B93
:103AFC0073756D206572720D00636B73756D206349
:103B0C00616C63753D253032782C20636B73756D59
:103B1C0020526563763D253032780D0A0070616362
:103B2C006B6574206E756D20657272206375723DC5
:103B3C0025642C6E78743D25640D0A00434F4E4667
:103B4C0049475F4552524F525F43484B2100434F08
:103B5C004E4649475F4552524F525F54494D2100E2
:103B6C00434F4E4649475F4552524F525F41434384
:103B7C002100434F4E4649475F4552524F525F47D3
:103B8C0059522100434F4E4649475F4552524F52BE
:103B9C005F4D41472100466C61736820726561641A
:103BAC00206572726F722120506C65617365207292
:103BBC0065636F6E666967207769746820636F6EE2
:103BCC006669672E7478742E00466C617368207772
:103BDC0072697465206572726F722120506C656118
:103BEC007365207265636F6E6669672077697468A8
:103BFC0020636F6E6669672E7478742E0053414D86
:103C0C00504C455F524154455F4552524F52210032
:103C1C004143435F52414E47455F4552524F5221FB
:103C2C00004143435F4F44525F4552524F52210073
:103C3C004759525F52414E47455F4552524F5221B0
:103C4C00004759525F4F44525F4552524F52210028
:103C5C004D41475F52414E47455F4552524F5221AD
:103C6C00004D41475F4F44525F4552524F52210025
:103C7C00556E6B6E6F776E206572726F722121219B
:103C8C0000436F6E66696775726174696F6E206947
:103C9C007320696E76616C69642120506C65617368
:103CAC006520656E7465722027432720746F20721F
:103CBC0065636F6E666967207769746820636F6EE1
:103CCC006669672E7478742E0D00466C61736820DB
:103CDC00457261736520436869700D00506C6561B5
:103CEC00736520776169742E2E2E0D00466C6173FE
:103CFC00682045726173652043686970204F4B0DD5
:103D0C0000446F776E6C6F6164204D75736963202E
:103D1C0046696C6520546F2053706920466C617342
:103D2C00680D004E414B0D0078794D6F64656D2028
:103D3C00696E6974204F4B0D0025303258200D0AE6
:103D4C0000577269746520466C6173682045727205
:103D5C006F720D0041434B0D0052656365697665CA
:103D6C002066696C6520737563636573730D00540D
:103D7C006F74616C2050616B65743A25640D0A0098
:103D8C0046696C652031323820427974652048656B
:103D9C0061643A0D002530325800726563656976AE
:103DAC0065206572726F723D25640D0A007472791C
:103DBC003D25640D0A0078794D6F64656D20696E40
:103DCC006974206661696C3A25640D0A0078794D36
:103DDC006F64656D2072657472792025640D0A001C
:103DEC004D7033536574566F6C6D652062656769F1
:103DFC006E0D004D7033536574566F6C6D65204CB1
:103E0C006566743D25642C52696768743D25640DA4
:103E1C000A004D7033536F6674526573657420736A
:103E2C0074617274200D004D7033536F667452655B
:103E3C0073657420656E64200D004D7033204857F7
:103E4C002052657365742073746172740D004D702B
:103E5C003320485720526573657420656E640D00DD
:020000023000CC
:10E000000D9489F10D94B2F10D94B2F10D94B2F129
:10E010000D94B2F10D94B2F10D94B2F10D94B2F1F0
:10E020000D94B2F10D94B2F10D94B2F10D94B2F1E0
:10E030000D94B2F10D94B2F10D94B2F10D94B2F1D0
:10E040000D94B2F10D94B2F10D94B2F10D94B2F1C0
:10E050000D94B2F10D94B2F10D94B2F10D94B2F1B0
:10E060000D94B2F10D94B2F10D94B2F10D94B2F1A0
:10E070000D94B2F10D94B2F10D94B2F10D94B2F190
:10E080000D94B2F10D94B2F10D94B2F10D94B2F180
:10E090000D94B2F10D94B2F10D94B2F10D94B2F170
:10E0A0000D94B2F10D94B2F10D94B2F10D94B2F160
:10E0B0000D94B2F10D94B2F10D94B2F10D94B2F150
:10E0C0000D94B2F10D94B2F10D94B2F10D94B2F140
:10E0D0000D94B2F10D94B2F10D94B2F10D94B2F130
:10E0E0000D94B2F141546D656761323536300041AF
:10E0F000726475696E6F206578706C6F72657220DE
:10E1000073746B3530305632206279204D4C530099
:10E11000426F6F746C6F616465723E004875683F52
:10E1200000436F6D70696C6564206F6E203D200048
:10E130004350552054797065202020203D20005FF9
:10E140005F4156525F415243485F5F3D2000415658
:10E1500052204C696243205665723D20004743437C
:10E160002056657273696F6E203D20004350552024
:10E1700049442020202020203D20004C6F7720663D
:10E18000757365202020203D20004869676820665F
:10E190007573652020203D200045787420667573D6
:10E1A00065202020203D20004C6F636B2066757336
:10E1B000652020203D20004D617220203720323024
:10E1C000313300312E362E3800342E332E350056A2
:10E1D00023202020414444522020206F7020636F70
:10E1E00064652020202020696E73747275637469E1
:10E1F0006F6E2061646472202020496E74657272B3
:10E20000757074006E6F20766563746F7200726A49
:10E210006D702020006A6D70200057686174207056
:10E220006F72743A00506F7274206E6F7420737541
:10E2300070706F72746564004D7573742062652030
:10E2400061206C6574746572002000577269747483
:10E25000696E672045450052656164696E672045B7
:10E26000450045452065727220636E743D00504F35
:10E27000525400303D5A65726F2061646472003FF1
:10E280003D43505520737461747300403D454550C3
:10E29000524F4D207465737400423D426C696E6B41
:10E2A000204C454400453D44756D70204545505215
:10E2B0004F4D00463D44756D7020464C415348001B
:10E2C000483D48656C70004C3D4C69737420492F83
:10E2D0004F20506F72747300513D51756974005234
:10E2E0003D44756D702052414D00563D73686F7707
:10E2F00020696E7465727275707420566563746FF0
:10E30000727300593D506F727420626C696E6B00BD
:10E310002A0011241FBECFEFD1E2DEBFCDBF01E046
:10E320000CBF12E0A0E0B2E0EEE1FDEF03E00BBFB6
:10E3300002C007900D92A030B107D9F712E0A0E01B
:10E34000B2E001C01D92AE30B107E1F70F9460F367
:10E350000D948DFE01E20EBF0FEF0DBF11241FBE05
:10E360000D9460F30D9400F020E030E040ED57E0B4
:10E3700005C0FA013197F1F72F5F3F4F2817390792
:10E38000C0F308959C01260F311DC901A0E0B0E043
:10E390002F5F3F4FABBFFC018791882361F08093D3
:10E3A000C6008091C00086FFFCCF8091C0008064D1
:10E3B0008093C000EACF08958DE08093C6008091DD
:10E3C000C00086FFFCCF8091C00080648093C000B5
:10E3D0008AE08093C6008091C00086FFFCCF8091C8
:10E3E000C00080648093C00008950F94C2F10F9420
:10E3F000DCF10895FC019081992359F09093C600B7
:10E400008091C00086FFFCCF8091C0008064809323
:10E41000C0003196992379F70895282F982F929567
:10E420009F70892F805D8A3308F0895F8093C600D2
:10E430008091C00086FFFCCF8091C00080648093F3
:10E44000C000822F8F70982F905D9A3308F0995FEB
:10E450009093C6008091C00086FFFCCF8091C000E1
:10E4600080648093C00008959C01FB01853691056E
:10E470001CF46330710594F0C90164E670E00F94F8
:10E480002EFE605D7F4F6093C6008091C00086FFC6
:10E49000FCCF8091C00080648093C0002B30310598
:10E4A00014F43297B4F0C90164E670E00F942EFEC4
:10E4B0006AE070E00F942EFE605D7F4F6093C600AF
:10E4C0008091C00086FFFCCF8091C0008064809363
:10E4D000C000C9016AE070E00F942EFEC0968093E0
:10E4E000C6008091C00086FFFCCF8091C000806490
:10E4F0008093C00008951F93182F8EE692EE60E07F
:10E500000F94C2F11093C6008091C00086FFFCCF2B
:10E510008091C00080648093C0000F94DCF11F9153
:10E5200008952F923F924F925F926F927F928F92B7
:10E530009F92AF92BF92CF92DF92EF92FF920F9392
:10E540001F93DF93CF93CDB7DEB762970FB6F894E2
:10E55000DEBF0FBECDBF382E622ECA01DB015C01CB
:10E560006D01772420E2222E2E010894411C511CBB
:10E570008BC081E0A81680E0B80681E0C80680E084
:10E58000D80628F0C601AA27BB270F940DF2BB2797
:10E59000AD2D9C2D8B2D0F940DF28A2D0F940DF225
:10E5A0002092C6008091C00086FFFCCF8091C00001
:10E5B00080648093C0009DE29093C6008091C0006B
:10E5C00086FFFCCF8091C00080648093C0002092C1
:10E5D000C6008091C00086FFFCCF8091C00080649F
:10E5E0008093C00019828601750188249924A1E0D6
:10E5F0003A1651F03A1620F0B2E03B1661F409C029
:10E600000BBFF701779007C0C7010F9477FE782EF4
:10E6100002C0F7017080872D0F940DF22092C60082
:10E620008091C00086FFFCCF8091C0008064809301
:10E63000C000872D8052F401EF70F0708F3520F408
:10E64000E40DF51D708204C0E40DF51D8EE280839B
:10E650000894E11CF11C011D111D0894811C911CE2
:10E6600090E18916910409F0C2CF80E190E0A0E02A
:10E67000B0E0A80EB91ECA1EDB1E198AC2010F9493
:10E68000FAF10F94DCF16A94662009F072CF629679
:10E690000FB6F894DEBF0FBECDBFCF91DF911F91B3
:10E6A0000F91FF90EF90DF90CF90BF90AF909F9031
:10E6B0008F907F906F905F904F903F902F90089534
:10E6C0002F923F924F925F926F927F928F929F9282
:10E6D000AF92BF92CF92DF92EF92FF920F931F9370
:10E6E000DF93CF93CDB7DEB7CD53D1400FB6F894BB
:10E6F000DEBF0FBECDBF01E20EBF0FEF0DBF94B75F
:10E70000F894A89514BE80916000886180936000A1
:10E7100010926000789493FF05C0E0910002F091A0
:10E7200001021995279A2F9A8091C00082608093E8
:10E73000C00080E18093C40088E18093C1000000A4
:10E74000EE24FF24870144E0A42EB12CCC24DD2448
:10E7500024C0C5010197F1F70894E11CF11C011DCB
:10E76000111D21E2E2162EE4F20620E0020720E06D
:10E77000120718F031E0C32ED12CC801B70127ECE5
:10E780003BE140E050E00F9441FE611571058105C9
:10E79000910519F485B1805885B98091C00087FD35
:10E7A00003C0C114D104A9F2A6014F5F5F4FC25E3E
:10E7B000DE4F59834883CE51D140C25EDE4F8881FF
:10E7C0009981CE51D140019711F00D9410FEC05D9A
:10E7D000DE4F19821882C053D14060E0C15DDE4F28
:10E7E0001882CF52D14088249924C35DDE4F19820C
:10E7F0001882CD52D140C05EDE4F188219821A8233
:10E800001B82C052D140CE5CDE4F188219821A8220
:10E810001B82C253D140EE24FF2487010BBFF701B6
:10E8200007911691C45CDE4F19830883CC53D14005
:10E830000D940BFEC25EDE4F28813981CE51D1404E
:10E840002130310509F52091C600C25EDE4F1982E4
:10E850001882CE51D14022C02F5F3F4F4F4F5F4FA4
:10E86000213082E138078AE7480780E0580780F0C6
:10E87000C45CDE4FE881F981CC53D140EF5FFF4F9C
:10E8800019F0EE27FF27099420E030E040E050E047
:10E890008091C00087FFE0CF2091C600C35DDE4FAE
:10E8A00048815981CD52D1404F5F5F4FC35DDE4FEC
:10E8B00059834883CD52D140213209F063C64A3092
:10E8C000510508F05FC60894811C911C53E0851621
:10E8D000910409F059C600E010E018C081E280936D
:10E8E000C6008091C00086FFFCCF8091C00080648C
:10E8F0008093C0002F5F3F4F2931310579F70F9486
:10E90000DCF10F5F1F4F0530110519F020E030E0FA
:10E91000E5CF10920A0210920B0210920C02109294
:10E920000D02109206021092070210920802109235
:10E930000902109202021092030210920402109235
:10E9400005028FEE90EE60E00F94F5F180E191EE1C
:10E9500060E00F94C2F18091C00087FFFCCF9091DE
:10E96000C600903608F09F759032B8F09093C600BC
:10E970008091C00086FFFCCF8091C00080648093AE
:10E98000C000A0E2A093C6008091C00086FFFCCF2B
:10E990008091C00080648093C000983409F4D7C18E
:10E9A0009934B8F4923409F459C1933458F490333B
:10E9B00019F1903308F4E3C59F33A1F1903409F0C5
:10E9C000DEC5BDC0953409F470C1963409F0D7C5D1
:10E9D00098C1923509F42BC2933538F49C3409F46C
:10E9E000F5C1913509F0CBC518C2963509F445C279
:10E9F000993509F0C4C567C483E792EE62E00F94CD
:10EA0000F5F110920602109207021092080210927D
:10EA1000090210920A0210920B0210920C0210923C
:10EA20000D0213C18FE792EE62E00F94F5F18FEEC5
:10EA300090EE60E00F94F5F181E291EE60E00F94CA
:10EA4000C2F187EB91EE60E00F94F5F180E391EE77
:10EA500060E00F94C2F184EE90EE60E00F94F5F167
:10EA60008FE391EE60E00F94C2F186E090E061E008
:10EA700070E00F9434F20F94DCF18DE591EE60E0DC
:10EA80000F94C2F189EC91EE60E00F94F5F18EE401
:10EA900091EE60E00F94C2F183EC91EE60E00F9490
:10EAA000F5F18CE691EE60E00F94C2F18EE10F94E7
:10EAB0000DF288E90F940DF281E00F940DF20F949E
:10EAC000DCF18BE791EE60E00F94C2F119E0E0E039
:10EAD000F0E010935700E4918E2F0F940DF20F94F5
:10EAE000DCF18AE891EE60E00F94C2F1E3E0F0E03F
:10EAF00010935700E4918E2F0F940DF20F94DCF1D8
:10EB000089E991EE60E00F94C2F1E2E0F0E0109349
:10EB10005700E4918E2F0F940DF20F94DCF188EAE8
:10EB200091EE60E00F94C2F1E1E0F0E01093570045
:10EB30001491812F0F940DF20F94DCF107CF8BE825
:10EB400092EE62E00F94F5F18BE492EE60E00F94A8
:10EB5000F5F10F94DCF100E010E019C0C8016F2D51
:10EB60000F947FFEFF2031F489E492EE60E00F9471
:10EB7000C2F10BC0F092C6008091C00086FFFCCFAE
:10EB80008091C00080648093C0000F5F1F4FC80158
:10EB900081519F41A0E0B0E0ABBFFC01F790BAE229
:10EBA000FB1621F0E2E000301E07C1F60F94DCF105
:10EBB0000F94DCF187E592EE60E00F94F5F10F948D
:10EBC000DCF1CC24DD2400E010E01EC0C8010F946D
:10EBD00077FEF82E882331F489E492EE60E00F94FA
:10EBE000C2F10BC08093C6008091C00086FFFCCFAD
:10EBF0008091C00080648093C000FE1419F00894D6
:10EC0000C11CD11C0F5F1F4FC80181519F41A0E063
:10EC1000B0E0ABBFFC01E790FAE2EF1621F022E092
:10EC20000030120799F60F94DCF10F94DCF182E6C4
:10EC300092EE60E00F94C2F1C60161E070E00F94C3
:10EC400034F20F94DCF10F94DCF110920202109276
:10EC50000302109204021092050278CE89E992EE26
:10EC600062E00F94F5F1279A2F9A16C02F9880E052
:10EC700090E0E0EDF7E03197F1F7019684369105E9
:10EC8000C1F72F9A80E090E0E0EDF7E03197F1F7DF
:10EC9000019684369105C1F78091C00087FFE6CFC9
:10ECA0008091C00087FFFCCF64C485EA92EE62E0E9
:10ECB0000F94F5F140910202509103026091040219
:10ECC0007091050281E020E10F9491F2809102029F
:10ECD00090910302A0910402B091050280509F4FD1
:10ECE000AF4FBF4F8093020290930302A0930402A0
:10ECF000B093050280509041A040B04008F426CE69
:10ED0000A4CF83EB92EE62E00F94F5F140910602FE
:10ED100050910702609108027091090280E020E1A1
:10ED20000F9491F28091060290910702A09108023F
:10ED3000B091090280509F4FAF4FBF4F80930602A2
:10ED400090930702A0930802B0930902FFCD80ECD4
:10ED500092EE62E00F94F5F183E792EE60E00F949B
:10ED6000F5F18FE792EE60E00F94F5F18BE892EE0B
:10ED700060E00F94F5F189E992EE60E00F94F5F10F
:10ED800085EA92EE60E00F94F5F183EB92EE60E09D
:10ED90000F94F5F180EC92EE60E00F94F5F187ECC2
:10EDA00092EE60E00F94F5F188ED92EE60E00F9442
:10EDB000F5F18FED92EE60E00F94F5F18AEE92EEB0
:10EDC00060E00F94F5F183E093EEBDCD87EC92EE19
:10EDD00062E00F94F5F181E40F947BF282E40F94EA
:10EDE0007BF283E40F947BF284E40F947BF285E45E
:10EDF0000F947BF286E40F947BF287E40F947BF20E
:10EE000088E40F947BF28AE40F947BF28BE40F94F6
:10EE10007BF28CE40F947BF299CD88ED92EE62E068
:10EE20000F94F5F1772473948824992409C48FED05
:10EE300092EE62E00F94F5F140910A0250910B02BC
:10EE400060910C0270910D0282E020E10F9491F22A
:10EE500080910A0290910B02A0910C02B0910D02D8
:10EE600080509F4FAF4FBF4F80930A0290930B0289
:10EE7000A0930C02B0930D0269CD8AEE92EE62E08F
:10EE80000F94F5F184EE90EE60E00F94F5F18FECC5
:10EE900091EE60E00F94F5F1662477244301CC5D98
:10EEA000DE4F19821882C452D140D401C301B695F5
:10EEB000A79597958795CA5DDE4F88839983AA8326
:10EEC000BB83C652D140CC5DDE4FA881B981C4520C
:10EED000D1401196CC5DDE4FB983A883C452D14096
:10EEE000CD0162E070E00F9434F2B0E2B093C6005E
:10EEF0008091C00086FFFCCF8091C0008064809329
:10EF0000C000EDE2E093C6008091C00086FFFCCF18
:10EF10008091C00080648093C000F0E2F093C6004E
:10EF20008091C00086FFFCCF8091C00080648093F8
:10EF3000C000CA5DDE4FE880F9800A811B81C6529D
:10EF4000D140BB27A12F902F8F2D0F940DF2CA5DBA
:10EF5000DE4F8881C652D1400F940DF2B0E2FB2EF5
:10EF6000F092C6008091C00086FFFCCF8091C00067
:10EF700080648093C0000DE30093C6008091C000C0
:10EF800086FFFCCF8091C00080648093C00010E2B7
:10EF90001093C6008091C00086FFFCCF8091C00016
:10EFA00080648093C0008BBEF3012791C65DDE4F65
:10EFB0002883CA52D140A22EBB24CC24DD2408943D
:10EFC000611C711C811C911C8BBEF3018791282E42
:10EFD0003324442455240894611C711C811C911C09
:10EFE0008BBEF3013791C55DDE4F3883CB52D140E4
:10EFF0000894611C711C811C911C8BBEF30147910C
:10F00000C45DDE4F4883CC52D140ADEFEA2EAFEF66
:10F01000FA2EAFEF0A2FAFEF1A2F6E0C7F1C801E57
:10F02000911E142D032DF22CEE24EA0CFB1C0C1D5A
:10F030001D1D0F940DF220E22093C6008091C000A8
:10F0400086FFFCCF8091C00080648093C000C65DC5
:10F05000DE4F8881CA52D1400F940DF230E23093D6
:10F06000C6008091C00086FFFCCF8091C000806404
:10F070008093C000C45DDE4F8881CC52D1400F9494
:10F080000DF240E24093C6008091C00086FFFCCFA5
:10F090008091C00080648093C000C55DDE4F888190
:10F0A000CB52D1400F940DF250E25093C6008091A4
:10F0B000C00086FFFCCF8091C00080648093C000B8
:10F0C0008FEFE8168FEFF80680E0080780E018075A
:10F0D00031F484E092EE60E00F94C2F1DFC0D80119
:10F0E000C7018070907CA070B0708050904CA040A0
:10F0F000B040D1F52FEF3FE340E050E0E222F322B1
:10F1000004231523CA5DDE4FA880B980CA80DB8046
:10F11000C652D140AE0CBF1CC01ED11EAA0CBB1CD7
:10F12000CC1CDD1C8EE092EE60E00F94C2F1BB2798
:10F13000A12F902F8F2D0F940DF28E2D0F940DF285
:10F1400030E23093C6008091C00086FFFCCF8091F2
:10F15000C00080648093C0004EE34093C60080915D
:10F16000C00086FFFCCF87C08EE09EEFA0E0B0E03D
:10F17000E822F9220A231B239CE0E91694E9F90608
:10F1800090E0090790E0190709F088C0C45DDE4FE0
:10F19000A881CC52D140EA2EFF2400E010E0102FCD
:10F1A0000F2DFE2CEE24C55DDE4FB881CB52D14031
:10F1B000EB0EF11C011D111DD601C501817090706F
:10F1C000A070B070DC0199278827E80EF91E0A1F8D
:10F1D0001B1F20EF30E040E050E0A222B322C42207
:10F1E000D52241E1AA0CBB1CCC1CDD1C4A95D1F7F1
:10F1F000EA0CFB1C0C1D1D1D81E090E0A0E0B0E0BE
:10F20000282239224A225B2235E1220C331C441C7D
:10F21000551C3A95D1F7E20CF31C041D151D57013E
:10F220006801AA0CBB1CCC1CDD1C85E192EE60E0E1
:10F230000F94C2F1C801AA27BB270F940DF2BB2778
:10F24000A12F902F8F2D0F940DF28E2D0F940DF274
:10F2500090E29093C6008091C00086FFFCCF809121
:10F26000C00080648093C000AEE3A093C60080918C
:10F27000C00086FFFCCF8091C00080648093C000F6
:10F28000C601AA27BB270F940DF2BB27AD2D9C2DDD
:10F290008B2D0F940DF28A2D0F940DF20F94DCF14B
:10F2A000CC5DDE4FE881F981C452D140F99709F471
:10F2B0004DCBF4E0EF2EF12C012D112D6E0C7F1CA7
:10F2C000801E911EF2CD83E093EE62E00F94F5F183
:10F2D0008AE192EE60E00F94C2F18091C00087FF56
:10F2E000FCCF1091C6001F751093C6008091C0001E
:10F2F00086FFFCCF8091C00080648093C0000F9493
:10F30000DCF1812F81548A3108F036C1163409F4BA
:10F3100095C0173490F4133409F44EC0143430F40B
:10F320001134F1F0123409F01DC130C0143409F465
:10F3300059C0153409F016C16BC01A3409F4C4C0A1
:10F340001B3438F4173409F48FC0183409F00AC19B
:10F35000A1C01B3409F4D2C01C3409F003C1E8C0B9
:10F360008FEF81B90DC082B1809582B980E090E0C5
:10F37000E0EDF7E03197F1F70196883C9105C1F790
:10F380008091C00087FFEFCF12B8EFC08FEF84B934
:10F390000DC085B1809585B980E090E0E0EDF7E0A3
:10F3A0003197F1F70196883C9105C1F78091C00033
:10F3B00087FFEFCF15B8D9C08FEF87B90DC088B1DF
:10F3C000809588B980E090E0E0EDF7E03197F1F7C3
:10F3D0000196883C9105C1F78091C00087FFEFCF6F
:10F3E00018B8C3C08FEF8AB90DC08BB180958BB9A7
:10F3F00080E090E0E0EDF7E03197F1F70196883C8E
:10F400009105C1F78091C00087FFEFCF1BB8ADC059
:10F410008FEF8DB90DC08EB180958EB980E090E0F0
:10F42000E0EDF7E03197F1F70196883C9105C1F7DF
:10F430008091C00087FFEFCF1EB897C08FEF80BBD1
:10F440000DC081B3809581BB80E090E0E0EDF7E0F6
:10F450003197F1F70196883C9105C1F78091C00082
:10F4600087FFEFCF11BA81C08FEF83BB0DC084B38C
:10F47000809584BB80E090E0E0EDF7E03197F1F714
:10F480000196883C9105C1F78091C00087FFEFCFBE
:10F4900014BA6BC08FEF809301010FC080910201FD
:10F4A00080958093020180E090E0E0EDF7E03197F5
:10F4B000F1F70196883C9105C1F78091C00087FF64
:10F4C000EDCF1092020151C08FEF809304010FC065
:10F4D0008091050180958093050180E090E0E0ED4A
:10F4E000F7E03197F1F70196883C9105C1F78091DB
:10F4F000C00087FFEDCF1092050137C08FEF8093DA
:10F5000007010FC08091080180958093080180E079
:10F5100090E0E0EDF7E03197F1F70196883C910536
:10F52000C1F78091C00087FFEDCF109208011DC088
:10F530008FEF80930A010FC080910B01809580931B
:10F540000B0180E090E0E0EDF7E03197F1F70196F4
:10F55000883C9105C1F78091C00087FFEDCF1092E4
:10F560000B0103C085E292EEEEC98091C00087FFD7
:10F57000FCCF8091C600EAC988E392EEE4C98CE131
:10F5800091EEE1C988249924933011F1943028F444
:10F59000913089F09230B8F408C0953061F195301F
:10F5A000F0F0963009F048C043C02B3109F042C951
:10F5B00091E06BE13FC96227C15DDE4F2883CF52E6
:10F5C000D14092E037C9B22FA0E0622793E032C960
:10F5D000822F90E0A82BB92B622794E02BC92E3004
:10F5E00009F039C3622795E0C05DDE4F19821882A9
:10F5F000C053D1401FC9E1E0F0E0EC0FFD1FC05D3A
:10F60000DE4F08811981C053D140E00FF11F2083E4
:10F610000F5F1F4FC05DDE4F19830883C053D14079
:10F6200062270A171B0709F005C9D80196E002C92D
:10F63000261709F010C303C0973009F0FBC87724E0
:10F640009981933109F412C19431C8F4963009F4C8
:10F65000D8C0973050F4923009F406C1933009F4C1
:10F660006DC0913009F059C253C0913109F477C08F
:10F67000923108F0BBC0903109F04FC2F5C098310B
:10F6800009F487C0993150F4953109F4EFC09531F0
:10F6900008F4C6C1963109F040C2C2C19A3109F4DA
:10F6A0006CC09A3108F491C09B3109F45BC09D3164
:10F6B00009F033C29D81903359F48F81882311F46E
:10F6C0009EE11CC0813011F091E018C098E916C08D
:10F6D000892F807591F0903539F4E0E0F0E089E011
:10F6E0008093570094910AC0983539F4E3E0F0E034
:10F6F00089E080935700949101C090E01A821B82A8
:10F700008D818C831D829E831F8227E030E009C299
:10F710001A8288E08B8381E48C8386E58D8382E581
:10F720008E8389E48F8383E5888780E589878FE5E9
:10F730008A8782E38B872BE030E0F3C18A818139AD
:10F7400041F0823941F0803911F48FE005C080E04A
:10F7500003C082E001C08AE01A828B8344C0772410
:10F76000739482C08D81882311F48EE12CC0813086
:10F7700011F081E028C088E926C01A82E1E0F0E0BB
:10F7800089E08093570084918B831C8224E030E0D1
:10F79000C8C18B81803589F48C81883039F4E2E0EE
:10F7A000F0E089E08093570084910DC0E0E0F0E044
:10F7B00089E080935700849106C0E3E0F0E089E09F
:10F7C0008093570084911A82DFCF8D81836C99E0FA
:10F7D000E1E0F0E0082E90935700E89507B600FCB2
:10F7E000FDCF1A821B8223E030E09BC180EC8A832C
:10F7F000CE5CDE4F188219821A821B82C253D1401E
:10F800008EC18A8190E0A0E0B0E0582F44273327D2
:10F8100022278B8190E0A0E0B0E0DC0199278827C7
:10F82000282B392B4A2B5B2B8D8190E0A0E0B0E098
:10F83000282B392B4A2B5B2B8C8190E0A0E0B0E089
:10F84000BA2FA92F982F8827282B392B4A2B5B2BCF
:10F85000220F331F441F551FC05EDE4F288339839C
:10F860004A835B83C052D1401A8259C13A81C95C34
:10F87000DE4F3883C753D140CA5CDE4F1882C6536F
:10F88000D1408B81C82EDD24CA5CDE4F488159816E
:10F89000C653D140C42AD52A933109F082C0CE5C28
:10F8A000DE4F88819981AA81BB81C253D1408050AB
:10F8B000904CA340B04030F583E0CE5CDE4FE88052
:10F8C000F9800A811B81C253D140F70100935B008C
:10F8D00080935700E89507B600FCFDCFCE5CDE4F65
:10F8E000088119812A813B81C253D14000501F4FAA
:10F8F0002F4F3F4FCE5CDE4F088319832A833B8313
:10F90000C253D140C05EDE4F488159816A817B81FC
:10F91000C052D140DE011B9631E08C9111962C91A2
:10F9200011971296C75CDE4F2883C953D140C85C3B
:10F93000DE4F1882C853D14090E0C85CDE4FE881AA
:10F94000F981C853D1408E2B9F2B0C01FA01609393
:10F950005B0030935700E89511244E5F5F4F6F4F67
:10F960007F4F0EEFE02E0FEFF02ECE0CDF1CC114F8
:10F97000D10499F685E0C05EDE4F088119812A81A5
:10F980003B81C052D140F80120935B008093570027
:10F99000E89507B600FCFDCF81E180935700E8951C
:10F9A00035C0C05EDE4F88819981AA81BB81C0527B
:10F9B000D140B695A795979587957C018601ABE0D8
:10F9C000AA2EB12CAC0EBD1E0BC0D5016D915D01F0
:10F9D000C7010F947FFE0894E11CF11C01501040F8
:10F9E0000115110591F7A60160E070E0440F551F65
:10F9F000661F771FC05EDE4FE880F9800A811B8199
:10FA0000C052D1404E0D5F1D601F711F1A82C05E33
:10FA1000DE4F488359836A837B83C052D1407FC0C5
:10FA2000FA80C55CDE4FF882CB53D140C65CDE4F16
:10FA30001882CA53D1408B81C82EDD24C65CDE4FAC
:10FA400008811981CA53D140C02AD12A1A828981DA
:10FA5000BE016D5F7F4F843121F59601C05EDE4FA0
:10FA6000E880F9800A811B81C052D1400BBFF701A9
:10FA700087919691DB018C9311969C936E5F7F4FDB
:10FA8000D801C7010296A11DB11DC05EDE4F88835B
:10FA90009983AA83BB83C052D14022503040F1F6F3
:10FAA00036C0C05EDE4F288139814A815B81C052F9
:10FAB000D1400894C108D108760100E010E0089414
:10FAC000C11CD11C0894E11CF11C011D111DE20E8A
:10FAD000F31E041F151F21BDBB27A52F942F832FB5
:10FAE00082BD2F5F3F4F4F4F5F4FF89A80B5DB01CC
:10FAF0008D93BD012E153F054007510761F7C05E8C
:10FB0000DE4F288339834A835B83C052D1409601FC
:10FB10002D5F3F4FFB01108204C080EC8A8322E0FE
:10FB200030E08BE18093C6008091C00086FFFCCF5F
:10FB30008091C00080648093C000C15DDE4FF88179
:10FB4000CF52D140F093C6008091C00086FFFCCF19
:10FB50008091C00080648093C000432F3093C60022
:10FB60008091C00086FFFCCF8091C00080648093AC
:10FB7000C000922F2093C6008091C00086FFFCCF6A
:10FB80008091C00080648093C0008EE08093C600A6
:10FB90008091C00086FFFCCF8091C000806480937C
:10FBA000C00065E1C15DDE4FE880CF52D1406E25D7
:10FBB00069276427FE01319610C090819093C6009A
:10FBC0008091C00086FFFCCF31968091C000806498
:10FBD0008093C0006927215030402115310569F715
:10FBE0006093C6008091C00086FFFCCF8091C0006A
:10FBF00080648093C00085B1805885B9772081F4F6
:10FC0000C15DDE4F0881CF52D1400F5FC15DDE4F35
:10FC10000883CF52D14090E0A0E0B0E00D941AF4F8
:10FC200027982F9880E090E020ED37E0F901319798
:10FC3000F1F7019684369105C9F700008091C00064
:10FC40008D7F8093C00081E180935700E895EE2777
:10FC5000FF270994FFCF90E00D941AF497FB092E2B
:10FC600007260AD077FD04D02ED006D000201AF443
