:020000040000FA
:06000000020107022A3D87
:03001300022E9E1C
:03002B00022E782A
:03003300022FFE9B
:03005300022AB3CB
:03007B00022E351D
:10008300022893E5C754F84401F5C779012200001B
:100093000080FB120086B900030200F1E4792178A5
:1000A3000FB800028004F709D8FCE479307802B86D
:1000B30000028004F709D8FCE490028178AD791935
:1000C3008002F0A3D8FCD9FA7A2D7B1B90013778F4
:1000D3006879028015E493A3AD82AE838A828B8311
:1000E300F0A3AA82AB838D828E83D8E9D9E7758288
:1000F30000758380740512011975829175830074EC
:100103000012011975D00075813F751881751902A8
:10011300759F00020096C09FF59FE473D09F22D085
:1001230083D082C09FE493C0E0740193C0E0740263
:1001330093F59F2290049C04D204CC04FF0000B4E6
:10014300000028002800283075A000A000A000A00F
:100153000000080008E001F000100010001000107B
:10016300001000100050005000500010001000D08C
:10017300070000000000000F0001000500307507B4
:10018300001000010081FF00000000FFFFFF2E06AA
:100193004C0634068E06FF02020208025000A0003D
:1001A3000000E8030272910100006191027A91015B
:1001B3000000901B026891010000C802027A9101BD
:1001C3000000911B027C91010000DE02027A910182
:1001D3000000921B027691010000E002027A910175
:1001E3000000931B026C91080000E102027A910166
:1001F3000000941B026491010000951BFFFF0100A6
:10020300FF200272910100005E91027A91010000C9
:10021300FA1B0266910000000000026A91030000CD
:1002230011031700981198119811981198119811AA
:1002330098119811981198119811981198111A14EE
:10024300381414145E157015581501544920424C86
:100253004520416C6C00000000000000000000001D
:100263001100FFFF0000033000310032003300347F
:1002730000350036003700380039003000310032D5
:1002830000330034003500360037003800390012DF
:100293001C671C671C671C671C6F1C12012258DF3C
:1002A300041201226BDF04120122C5DF04120122B2
:1002B300E6DF0412012251E00412012292E004124B
:1002C3000122B3E004120122D4E00412012224E14A
:1002D3000412012265E104120122FDE1041201224C
:1002E30045E20412012270E20412012218FC0112F9
:1002F30001222BFC011201225CFC0112012296FC5B
:1003030001120122EFFC0112012236FD011201222A
:100313007EFD01120122ADFD01120122DCFD01125D
:10032300012213FE011201225AFE0112012273FE61
:1003330001120122C8FE01120122E1FE0112012273
:100343002FFF0112012269FF0112012272B203126F
:10035300012275B303120122A2B303120122E7B3F0
:1003630003120122F3B30312012216B40312012272
:1003730018B4031201224DB40312012250B4031224
:1003830001228EB403120122C4B4031201225BB50D
:1003930003120122C7B5031201228FB603120122F1
:1003A300ABB603120122E2B6031201221CB70312F9
:1003B3000122B3B70312012205B80312012236B892
:1003C3000312012239B8031201226AB8031201226F
:1003D30077B8031201228FB803120122F9B803126E
:1003E3000122FCB80312012209B9031201220CB93C
:1003F3000312012263B90312012266B90312012217
:1004030089B9031201229CB903120122D5B903123F
:100413000122D8B903120122EDB903120122F0B966
:100423000312012252BA0312012255BA0312012206
:10043300A9BA03120122ACBA031201223FBB031271
:1004430001224FBB0312012282BB031201228FBB85
:100453000312012292BB03120122FABB03120122EF
:1004630007BC0312012209BD03120122ADBD031211
:10047300012216BE0312012254BE0312012222E8F6
:10048300031201221AE9031201224EE90312012287
:10049300E4E9031201222FEA0312012293EA031271
:1004A30001221DEB03120122D6EB03120122F8EE07
:1004B3000312012275F00312012298F003120122A4
:1004C300F6CB041201229BCD04120122BBCD0412F0
:1004D3000122DCCE041201222FCF0412012202AA30
:1004E300041201222AAA0412012257AA0412012289
:1004F3008FAA04120122EDAA041201224BAC0412AA
:10050300012297AC04120122FEAC041201223EAD7B
:10051300041201227BAD04120122A9AD04120122AF
:1005230053AE041201225DAE041201226AAE04121C
:1005330001229DAE04120122A9AE04120122C1AE12
:1005430004120122CBAE0412012244FB0412012245
:1005530052FB041201226AFB0412012282FB0412E1
:10056300012299FB04120122B9AE0212012263AFE8
:100573000212012276B002120122F2B0021201220B
:1005830010B2021201224CB202120122E1B2021293
:1005930001227CB30212012260B40212012223B5AC
:1005A300021201229BB50212012229B70212012273
:1005B3009AB70212012254B80212012246B902125A
:1005C300012286B9021201223ABA021201226CBA3E
:1005D3000212012262BC02120122A9BC02120122F0
:1005E300C7BC021201222DBD02120122FCBD021260
:1005F3000122C0BE02120122DFC002120122E9C0A1
:10060300021201228AC90312012274CA03120122AF
:100613001FCB0312012269CB0312012206CC031262
:1006230001221FCC0312012239CC03120122E9CC8F
:10063300031201225ACD031201223FCE03120122DB
:1006430073CE031201226CCF03120122A9CF03122E
:1006530001226AD003120122CED00312012238D123
:10066300031201226AD103120122D2D10312012201
:100673005CD3031201229BD303120122B7D30312CB
:1006830001221DF104120122A1F104120122CCF175
:1006930004120122E6F2041201225FD404120122A1
:1006A30075D40412012293D404120122A4D5041296
:1006B3000122AED504120122D9D604120122D0D7C9
:1006C300041201223DD80412012247D80412012248
:1006D30062A40412012298A504120122CFA50412D8
:1006E300012226A6041201223BA804120122008043
:1006F30002120122B18002120122C18002120122E0
:100703001D8102120122B38102120122748202129C
:100713000122A98202120122DE8202120122F58243
:10072300021201226E830212012278830212012235
:100733008A8302120122BE83021201221B84021247
:1007430001226E8402120122C38402120122CE848A
:1007530002120122D98402120122F485021201221B
:10076300F78502120122FA8502120122FD85021287
:100773000122008602120122D68602120122B387C9
:10078300021201221088021201226D880212012234
:10079300E88802120122F68902120122AD8A0212AE
:1007A3000122BB8D02120122AA8F021201225C9048
:1007B300021201222591021201226A9402120122DD
:1007C3001495021201223D9602120122F997021298
:1007D3000122999802120122EC98021201222B990C
:1007E30002120122FE9902120122329A02120122FE
:1007F300BF9A02120122F3C0021201227FC1021228
:100803000122E3C202120122EFC2021201222AC311
:1008130002120122A1C302120122AAC4021201225E
:1008230071C502120122CEC602120122ECC60212C7
:10083300012209C702120122B6C70212012233C8DC
:10084300021201225BC80212012225CB02120122ED
:100853002ACB0212012243CD0212012291CD0212B0
:10086300012201CE021201223FCE021201221BCF2E
:1008730002120122DBCF0212012227D0021201222F
:100883002AD0021201226ED002120122B6D0021225
:100893000122F5D00212012217D1021201224BD1FB
:1008A30002120122AED10212012297B904120122CF
:1008B300A0B904120122AEB90412012201BA041232
:1008C300012220BA0412012265BA04120122A9BB33
:1008D3000412012244BC0412012288BC0412012226
:1008E300B2BC0412012221BD0412012267BD04120D
:1008F3000122DEBD041201228FBE041201220FBFAA
:10090300011201221FBF01120122C0BF01120122E5
:100913001CC001120122D9C001120122F5C101122A
:10092300012227C20112012256C20112012203C46D
:10093300011201227AC601120122EAC80112012220
:10094300DCC901120122D5CA01120122DCCC011239
:100953000122D0CF01120122FFD00112012203D3C1
:100963000112012213D401120122A2D50112012284
:1009730093D601120122E1D60112012250D70112AE
:10098300012274D701120122C5D70112012266DCAC
:100993000112012275DD011201223BDE0112012247
:1009A30086D20212012290D202120122D5D2021261
:1009B3000122E9D20212012221D3021201226AD3B7
:1009C30002120122ABD302120122EED30212012240
:1009D30018D402120122A1D4021201224CD5021210
:1009E30001227BD502120122B4D502120122EFD5D6
:1009F3000212012224D6021201224ED60212012231
:100A030077D602120122C5D602120122DAD60212C9
:100A13000122EFD60212012204D7021201222CD79F
:100A2300021201226FD70212012284D7021201227D
:100A3300EFD70212012203D80212012222D8021296
:100A4300012236D8021201224BD80212012260D8A9
:100A53000212012274D802120122B8D80212012212
:100A63000ED90212012248D9021201226CD90212B4
:100A7300012298D902120122C6D902120122F0D909
:100A83000212012205DA021201221ADA02120122EB
:100A93004ADA0212012294DA02120122F6DA02126F
:100AA300012231DB021201225CDB0212012287DB0D
:100AB30002120122F2DB021201222FDC02120122B6
:100AC3005ADC021201228ADC02120122C1DC021268
:100AD3000122EBDC0212012223DD021201224DDD91
:100AE300021201228ADD02120122B4DD0212012266
:100AF300E4DD021201220EDE0212012238DE0212AE
:100B0300012263DE021201228CDE02120122DDDEEB
:100B13000212012223DF021201224EDF02120122FE
:100B2300AEDF02120122D9DF0212012209E0021212
:100B330001224CE00212012276E0021201229BE024
:100B43000212012222E10212012255800512012222
:100B530036F804120122378D031201221A8E031272
:100B63000122958E03120122D08E031201222190BD
:100B730003120122AA9003120122C292031201223C
:100B830054950312012206960312012212970312AF
:100B93000122859803120122DE980312012287990C
:100BA3000312012259AF041201229CAF0412012245
:100BB30020B004120122F3B004120122CAB30412BA
:100BC300012238C304120122E5C30412012219C40D
:100BD300041201222FC40412012222C5041201228D
:100BE30074C504120122ABC504120122EAC5041222
:100BF300012244C60412012271C604120122ADC6A9
:100C030004120122FFC60412012240C7041201226A
:100C130071C70412012200EF0412012263EF0412D0
:100C2300012200F00412012221F00412012263F0D8
:100C33000412012293F004120122B4F004120122DF
:100C4300EFF0041201220FF10412012237FB031209
:100C53000122C3FB0312012282FC031201229AFD2B
:100C630003120122B4FF031201223BA60312012245
:100C730060A6031201222DA70312012201A8031269
:100C830001226EA803120122C4A80312012260A943
:100C93000312012294AA031201226FAB0312012251
:100CA300CEAB031201225AAC03120122C8AC0312C9
:100CB300012254AD0312012257AD0312012273AD79
:100CC3000312012276AD0312012298AD0312012211
:100CD30037AE03120122A9AE031201223BAF031266
:100CE3000122DCAF03120122FCAF0312012244B044
:100CF300031201228DB003120122A9B003120122B3
:100D0300CFB00312012249B10312012257B10312DA
:100D13000122E6B1031201224FB203120122AAC734
:100D2300041201222FC80412012271C804120122E5
:100D330055C904120122C2C90412012206CA0412AF
:100D430001224ACA0412012277CA041201229FCA4D
:100D530004120122D7CA0412012215CB0412012264
:100D63003CCB04120122B6CB041201227E91011264
:100D73000122779301120122639601120122B79691
:100D830001120122E29601120122BC9701120122F3
:100D9300FB97011201224298011201225598011278
:100DA3000122969801120122D89801120122E79894
:100DB30001120122149901120122629901120122E6
:100DC3009B9901120122FA99011201221A9A011226
:100DD3000122539A01120122769A011201220C9BDD
:100DE30001120122449B01120122A19B0112012243
:100DF300F49B01120122839C01120122599F0112CB
:100E0300012286A001120122F3A0011201226BA18B
:100E13000112012286A301120122C4A3011201229D
:100E230034A50112012261A501120122A6A5011216
:100E330001229AA601120122B3A80112012215A9C7
:100E43000112012266A90112012281AE01120122BF
:100E5300D0AE0112012216AF01120122E8B0011235
:100E63000122E3B101120122A1B301120122DAB37B
:100E730001120122DCB301120122DEB301120122AD
:100E8300E3B301120122E5B30112012290B401126E
:100E930001226AB50112012292B501120122BDB5E8
:100EA30001120122E8B5011201221DB6011201222D
:100EB30042B60112012261B6011201228EB601125D
:100EC300012204B70112012283B701120122CBB719
:100ED30001120122EDB7011201220BB90112012205
:100EE300CFB90112012200BA011201225FBA011225
:100EF300012284BA0112012270BB011201228DBBAF
:100F03000112012213BC01120122A3BC011201220E
:100F1300DBBC0112012222BD011201225BBD0112C1
:100F230001227DBD01120122AABD01120122DABEF6
:100F330001120122ECBE011201225AEC0412012219
:100F4300CCEC0412012222ED0412012266ED0412FC
:100F5300012286ED04120122D3ED041201221BEEBD
:100F6300041201226EEE04120122BFEE04120122CA
:100F730070DE03120122EFDE03120122E8E4031202
:100F83000122EEE50312012261E703120122F8E7D1
:100F930003120122A7DE01120122F0DE0112012257
:100FA3001DDF011201224FDF011201225BDF01125B
:100FB300012267DF011201227EDF0112012259E0C3
:100FC30001120122B7E001120122ECE00112012219
:100FD30020E10112012251E2011201229EE20112DB
:100FE3000122E4E20112012250E301120122F4E39F
:100FF30001120122AAE40112012209E501120122D0
:101003007AE501120122D8E5011201220AE7011251
:10101300012272E8011201223CE90112012249E98D
:10102300011201228BE9011201229BE90112012223
:10103300BFE901120122C2E901120122AEEA011243
:1010430001224AEB01120122E3EB011201227AECA5
:1010530001120122A7EC0112012205ED0112012266
:101063004CED011201229CED01120122ECED011263
:1010730001225EEE01120122F9EE01120122A4EF18
:101083000112012243F001120122C1F001120122D7
:1010930008F1011201226CF1011201229BF10112EC
:1010A300012229F2011201227AF2011201228CF4A7
:1010B30001120122D0F4011201221BF501120122B7
:1010C300A1F5011201222BF60112012244F70112AC
:1010D3000122CAF701120122EFF70112012246F899
:1010E300011201225BF801120122A3F8011201226D
:1010F30016F9011201225BF90112012264FA0112AD
:10110300012215FB0112012273FB01120122CFFB05
:1011130001120122E8FB01120122BBF10312012299
:101123000FF2031201221BF203120122E5F2031252
:10113300012212F30312012240F303120122ACF342
:1011430003120122E2F30312012212F40312012219
:101153004BF40312012263F403120122B8F40312C5
:101163000122D1F40312012216F50312012229F5FB
:101173000312012243F50312012259F5031201223E
:1011830077F603120122A2F7031201228CF803124D
:1011930001227DF903120122F97F001201227CB49E
:1011A30004120122FFB7041201224CB904120122D6
:1011B300BF9903120122929C03120122989C0312ED
:1011C3000122289F031201228BA103120122A1BE37
:1011D3000412012238BF04120122F6BF04120122B5
:1011E30020C004120122FAC104120122FFC2041218
:1011F3000122B96700120122EB6700120122087471
:101203000012012259750012012262760012012296
:10121300E17700120122CC78001201221B7900121F
:101223000122357900120122777900120122827995
:1012330000120122C97900120122D279001201227F
:101243007E7A00120122577B001201229E7B00123C
:101253000122067C00120122487C00120122767CC6
:1012630000120122B37C00120122B59B021201225B
:10127300809F02120122869F021201222AA60212D5
:1012830001227EAA0212012267AE02120122F3DBBF
:101293000412012269DC041201227FDC0412012200
:1012A3000FDD041201224CDD0412012286DD04123B
:1012B3000122C0DD0412012233DE0412012274DE96
:1012C300041201227DDE0412012289DE04120122AE
:1012D300A8DE04120122D2DE04120122E7DE041288
:1012E30001222ADF041201222D88041201224088E0
:1012F300041201225A88041201228788041201224F
:10130300CD88041201220089041201223E890412AD
:101313000122A38904120122B88904120122C3897C
:1013230004120122D08904120122E7890412012246
:10133300F58904120122048A04120122198A041273
:1013430001222E8A04120122398A04120122458ABB
:1013530004120122528A04120122658A0412012214
:10136300708A04120122958A041201229A8A0412B5
:101373000122318B04120122998B04120122A98BC1
:1013830004120122BE8B04120122D38B0412012208
:10139300ED8B041201220A8C04120122278C041201
:1013A3000122328C04120122DE8C04120122BF8D31
:1013B30004120122DB8D04120122F28D0412012298
:1013C300FD8D04120122128E04120122268E0412B4
:1013D3000122878E041201228D8E04120122938E24
:1013E30004120122998E04120122AD8E04120122ED
:1013F300D48E041201220F8F04120122288F0412AB
:1014030001226A8F041201229D8F0412012218D433
:10141300031201223AD40312012202D5031201223C
:10142300BCD703120122D2D803120122F3D903122B
:101433000122CDDA031201227CDB03120122E6EF43
:10144300021201227DF00212012215F10212012281
:1014530005F2021201223CF2021201224FF20212A1
:101463000122BDF20212012258F4021201227FF47A
:101473000212012221F50212012256F50212012263
:1014830067F502120122E0F50212012201F60212AF
:10149300012219F60212012271F7021201227AF9CE
:1014A30002120122CAFB02120122CDFC0212012206
:1014B3001CFD021201224AE10212012247E202123A
:1014C300012232E3021201223CE30212012246E32B
:1014D3000212012268E30212012274E302120122C2
:1014E300C6E402120122F5E40212012225E60212E9
:1014F300012267E60212012293E70212012269E840
:1015030002120122BBE8021201221AE9021201228D
:1015130051E9021201228CE90212012227ED021283
:10152300012240ED02120122C2ED02120122D0ED8E
:101533000212012225EE0212012233EE02120122CF
:10154300A0EE0212012212EF0212012258EF021240
:1015530001227ABE031201229CBE0312012286C01D
:10156300031201222BC4031201226EC503120122AE
:1015730048C603120122E2F40412012207F5041201
:10158300012278F50412012200800412012209804D
:101593000412012212800412012243810412012247
:1015A300628304120122988304120122D28304125B
:1015B3000122088404120122428404120122768447
:1015C30004120122A28404120122EB8404120122D8
:1015D3002585041201226D8504120122C38504129C
:1015E3000122F885041201225386041201228D86FA
:1015F30004120122DE86041201221487041201223E
:101603004E87041201227C87041201229F87041251
:10161300012200800312012233800312012276800B
:10162300031201228180031201228C800312012202
:10163300978003120122A280031201220C84031259
:101643000122EB8403120122648503120122DB854C
:1016530003120122E88503120122F58503120122F8
:10166300FF85031201220986031201221386031246
:10167300012220860312012230860312012276867C
:10168300031201229A8603120122A7860312012262
:10169300B78603120122C18603120122CB860312ED
:1016A3000122D58603120122E28603120122EC866F
:1016B30003120122F686031201220087031201227C
:1016C3000A87031201225287031201226F87031232
:1016D30001228C87031201229C8703120122A68711
:1016E300031201220188031201220E880312012230
:1016F300D08803120122DA8803120122E48803123C
:101703000122EE88031201220B8903120122288988
:10171300031201229F8903120122A98903120122C4
:10172300B68903120122C38903120122E489031239
:101733000122ED8903120122328A03120122408A17
:1017430003120122628A031201226B8A031201220D
:101753007A8A03120122928A031201229B8A0312BC
:101763000122298B03120122418B03120122518B87
:1017730003120122618B031201226B8B03120122DC
:101783007B8B031201228B8B03120122AA8B031280
:101793000122B78B03120122C48B03120122D48BC3
:1017A30003120122E18B03120122FE8B0312012299
:1017B3000E8C031201221E8C031201222E8C0312A3
:1017C30001225F8C03120122698C03120122798C9E
:1017D30003120122898C03120122968C0312012227
:1017E300BB8C03120122C88C03120122D88C031272
:1017F3000122E28C03120122EF8C03120122F98CE5
:1018030003120122098D03120122138D03120122F7
:101813001D8D031201222D8D031201227AFE041263
:10182300012215F30412012279F30412012228F490
:101833000412012247F4041201229BF40412012230
:10184300E87F00120122F480051201223381051280
:101853000122EBFF03120122C6FC04120122D6FC73
:1018630004120122EEFC0412012256FD041201228D
:101873004AF904120122CEF90412012234FA0412A5
:10188300012229FC041201222CFC0412012265FC12
:1018930004120122BBFC0412012251D804120122BA
:1018A3006ED804120122E7D804120122BCD9041213
:1018B30001228EDB0412012214E604120122D5E672
:1018C3000412012233E70412012293E704120122D6
:1018D300D9E704120122C2E804120122ECE804123F
:1018E300012210E9041201221EE90412012230E947
:1018F3000412012239E904120122B030001201223C
:10190300DA30001201220D3100120122A931001236
:101913000122A63200120122C63200120122013432
:1019230000120122543500120122F935001201225E
:10193300F83F00120122DF47001201221B5100125F
:1019430001228052001201223B5D00120122DA5D66
:1019530000120122255F001201229E620012012261
:10196300616300120122A56300120122C163001208
:1019730001220864001201224164001201227C65E5
:10198300001201229B6600120122EC660012012262
:1019930052800512012260FD04120122CBFD0412C4
:1019A3000122D6FD04120122E6FD04120122F1FDFB
:1019B30004120122D1FF01120122FAFF01120122B6
:1019C300B39E04120122BD9E04120122FD9E041245
:1019D3000122469F04120122809F04120122D69FF6
:1019E30004120122F59F04120122FE9F0412012218
:1019F3004FA00412012278A0041201228DA0041228
:101A0300012296A00412012206A10412012294A12C
:101A130004120122D8A10412012200A204120122FD
:101A23007FA204120122C2A204120122FFA2041205
:101A330001221EA30412012227A304120122ECA3F4
:101A43000412012236A40412012298F60412012280
:101A5300E9F60412012272F704120122D8F70412E4
:101A63000122B9E204120122E3E204120122DDE3BE
:101A73000412012202E404120122A3E4041201224B
:101A830029E5041201224DFA0412012268FF04120F
:101A93000122E77D001201221C7E00120122557EE5
:101AA30000120122AE7F00120122F2FE0412012273
:101AB30008FF0412012212FF041201221F900412D4
:101AC3000122DC90041201221791041201223F919A
:101AD30004120122A19104120122ED9104120122A8
:101AE3004D9204120122DE9204120122DA930412AF
:101AF3000122679504120122EA95041201224E96EF
:101B0300041201226596041201225B97041201223A
:101B13003CD00412012251D00412012204D1041238
:101B2300012244D1041201225DD10412012290D179
:101B330004120122DDD10412012211D20412012266
:101B430053D20412012252D404120122F8FD0412CA
:101B5300012228FE041201225DFE041201225FFE0F
:101B63000412012261FE0412012272FE04120122F8
:101B730074FE0412012277FE0412012270FD021288
:101B83000122DDFD02120122FFFD0212012237FEB6
:101B9300021201226DFE0212012242E90412012205
:101BA30084E904120122A7E904120122DFEB0412E3
:101BB3000122F9EB0412012224EC04120122A98070
:101BC30005120122A797041201228598041201220B
:101BD3007499041201228599041201229699041220
:101BE3000122E099041201227C9B04120122DC9C55
:101BF300041201220C9D04120122D79D041201221A
:101C0300379E04120122D2FF02120122BDFF0412E9
:101C1300010002020000205104AA16090001020378
:101C230001090243000201008019090400000102B6
:101C33000201000524001001042402020524060009
:101C43000105240100010705820340004009040146
:101C530000020A0000000705840240000107050492
:101C6300024000012D1C0000501C0000E0667010B3
:101C730008A3E066700A08A3E066700408A3E066A0
:101C830022C3E7960809E7960809E7960809E79645
:101C930022C3E09608A3E09608A3E09608A3E09683
:101CA30022C008C3E096F50808A3E096420808A3FB
:101CB300E096420808A3E09645087001D3D00822B5
:101CC300BB0102E722C082C08389828A83BB0003EF
:101CD300E08002E493D083D08222BB000EC082C096
:101CE300838A838982F0D083D08222BB0101F722C9
:101CF300080808EAC0E0EBC0E086F0E7A4FA180998
:101D030086F0E7A42AFA180986F0E7A42AFA180944
:101D130086F0E7A42AFA1986F0E7A4FBE5F02AFA8D
:101D2300190886F0E7A42BFBE5F03AFA190886F0C8
:101D3300E7A42BFBE5F03AFA18180986F0E7A4C5E7
:101D4300F02BFBE43AFA1908E7C5F0C6A426F6E53A
:101D5300F03BFBE43AFA1886F0E7A4F6E5F0082630
:101D6300F6E43B08F6E43A08F6D0E0FBD0E0FA22CA
:101D7300E4CFC0E0E4CEC0E0E4CDC0E0E4CCC0E01A
:101D830075F020E626F608E633F608E633F608E6AD
:101D930033F6181818EC33FCED33FDEE33FEEF3356
:101DA300FFC3EC9709ED9709EE9709EF97191919F6
:101DB300400FFFEC97FC09ED97FD09EE97FE19190B
:101DC30006D5F0BFECF709EDF709EEF709EFF719C0
:101DD3001919D0E0FCD0E0FDD0E0FED0E0FF226096
:101DE30016080808C6C313C618C613C618C613C6F2
:101DF30018C613C6D5E0EA2270090808082260163F
:101E0300181818C6C333C608C633C608C633C6086F
:101E1300C633C6D5E0EA22E627F60809E637F60810
:101E230009E637F60809E637F622E026F608A3E0C6
:101E330036F608A3E036F608A3E036F622E026F0ED
:101E430008A3E036F008A3E036F008A3E036F0225A
:101E5300C3E697F60809E697F60809E697F6080930
:101E6300E697F622C3E096F008A3E096F008A3E015
:101E730096F008A3E096F022E657F60809E657F62F
:101E83000809E657F60809E657F622E056F608A3CE
:101E9300E056F608A3E056F608A3E056F622E0560D
:101EA300F008A3E056F008A3E056F008A3E056F0CC
:101EB30022E046F608A3E046F608A3E046F608A3A8
:101EC300E046F622E066F608A3E066F608A3E066BD
:101ED300F608A3E066F622E0F608A3E0F608A3E01E
:101EE300F608A3E0F622E6F008A3E6F008A3E6F07E
:101EF30008A3E6F022E0FAA3E0FBA3E0FCA3E0FDE5
:101F030022EAF0A3EBF0A3ECF0A3EDF022E0F8A3B8
:101F1300E0F9A3E0FAA3E0FB22E8F0A3E9F0A3EAE7
:101F2300F0A3EBF022CAC0E0E6F0A308DAFAD0E0AF
:101F3300FA22CAC0E0E0A3C582CCC582C583CDC561
:101F430083F0A3C582CCC582C583CDC583DAE6D031
:101F5300E0CA22C3E498F8E499F9121F978026C3D4
:101F6300E49AFAE49BFBE920E7E9121F97E498F867
:101F7300E499F922C3E498F8E499F9121F97E498D5
:101F8300F8E499F9C3E49AFAE49BFB22EB20E7CF48
:101F9300E920E7E0B90010BB0008E88AF084F8AA5A
:101FA300F022E4FBC8FA22EB70227B10C833C8C9C5
:101FB30033C9335007C39AC3DBF280069A50012A10
:101FC300DBEAC833F4C8C933F4C9FA2275F008E46C
:101FD300C833C8C933C933C99AC99B5004C92AC96C
:101FE3003BD5F0ECFBC833F4C8E4C9FA22600D0812
:101FF300C6A2E713C618C613C6D5E0F322600C08C1
:10200300C6C313C618C613C6D5E0F42270042260F3
:102013000D18C6C333C608C633C6D5E0F418222547
:102023001810AF08F518400C15198008F518400270
:102033001519D2AF2200C0D0251810AF08F51850DB
:102043000C05198008F51850020519D2AFD0D0221B
:102053002518F58210AF08F518400C15198008F5FE
:102063001840021519D2AF851983222518F582E489
:102073003519F583222518F8E43519F9222518FABC
:10208300E43519FB222518FCE43519FD22E47325F8
:1020930018C582C0E0E51934FFC583C0E0E518C365
:1020A300958224F810AF08858319858218800885E6
:1020B3008319858218D2AFCEF0A3E520F0A3780868
:1020C300E608F0A3DEFAEFF0A3E58124FAF8E608C8
:1020D300F0A3E608F0A3E608F0A30808E608F0A3D7
:1020E300E608F0A315811581D0E0FED0E0F8158154
:1020F30015811581E8C0E0EEC0E0222518C582C035
:10210300E0E51934FFC583C0E0E518C3958224F9DF
:1021130010AF088583198582188008858319858205
:1021230018D2AFCEF0A3E520F0A37808E608F0A319
:10213300DEFAEFF0A3E58124FBF8E608F0A3E60856
:10214300F0A30808E608F0A3E608F0A315811581BB
:10215300D0E0FED0E0F815811581E8C0E0EEC0E0E4
:1021630022851983851882E0A3FEE0A3F520780871
:10217300E0A3F608DFFAE0A3FFE0A3C0E0E0A3C01A
:10218300E0E0A3C0E0E0A3C0E0E0A3C0E010AF083C
:102193008582188583198008858218858319D2AFB3
:1021A300D083D08202011F851983851882E0A3FEA4
:1021B300E0A3F5207808E0A3F608DFFAE0A3FFE048
:1021C300A3C0E0E0A3C0E0E0A3C0E0E0A3C0E01050
:1021D300AF0885821885831980088582188583193D
:1021E300D2AFD083D08222C0D02518C582C0E0E50B
:1021F3001934FFC583C0E0E518C3958224F310AFFB
:10220300088583198582188008858319858218D2E9
:10221300AFC8F0A3E9F0A3EAF0A3EBF0A37908E7D2
:1022230009F0A3D8FAECF0A3EDF0A3EEF0A3EFF0DE
:10223300A3D0E0F0A3D0E0F0A3D0E0F0A3E520F03A
:10224300A3E5F0F0A322851983851882E0C0E0A3FB
:10225300E0F9A3E0FAA3E0FBA37808E0F608A3DF24
:10226300FAE0FCA3E0FDA3E0FEA3E0FFA3E0C0E0EF
:10227300A3E0C0E0A3E0F5D0A3E0F520A3E0A3F53D
:10228300F010AF0885831985821880088583198526
:102293008218D2AFD082D083D0E0F8D0E032740479
:1022A300800A74038006740280027401C0E0F4049F
:1022B300122053D0E0121F28227404800874038074
:1022C3000474028000CCC0E0EDC0E0E518C39CCCF0
:1022D300AD1950011D10AF068C188D1980068C188E
:1022E3008D19D2AF121F35D0E0FDD0E0FC22D08390
:1022F300D082C5F0E493A3C5F0C395F0F5F0E49361
:10230300A3C395F04005E5F0048001E475F002A451
:102313002582F582E5F03583F583E493A3C0E0E4F9
:1023230093C0E022D083D082E9C0E0E493A3C386C4
:10233300F0C5F095F0F908E493A386F0C5F095F0A5
:10234300700BE493A3C3994005E9048002A3E475E9
:10235300F002A42582F582E5F03583F583D0E0F918
:10236300E493A3C0E0E493C0E022D083D082CCC046
:10237300E0E493A360061223971470FAE493A36036
:10238300061223B61470FAD0E0FCE493A3C0E0E491
:1023930093C0E022C0E0E493A3D39C5010E493A342
:1023A300C39C400AD0E0D0E0D0E002238AA3A3A3D9
:1023B300D0E022C0E0E493A36C7009D0E0D0E0D079
:1023C300E002238AA3A3D0E022D083D082ECC0E032
:1023D300EDC0E0E493A3FCE493A3FDED4C600D1288
:1023E3002418EC24FFFCED34FFFD80EFE493A3FC01
:1023F300E493A3FDED4C600D122457EC24FFFCED98
:1024030034FFFD80EFD0E0FDD0E0FCE493A3C0E017
:10241300E493C0E022C0E0C3E4939608740193966A
:1024230018400FE4936670080874019366187000EF
:102433007019A3A3C3E49396087401939618A3A3F6
:10244300400DD0E0D0E0D0E0022408A3A3A3A3A3CF
:10245300A3D0E022C0E0C0F088F0E49366700808DF
:1024630074019366187000A8F0A3A3700BD0F0D08A
:0F247300E0D0E0D0E0022408A3A3D0F0D0E02214
:1024840074F61220FEEAFEEBFF8C088D09EE24346C
:10249400F8E43FF9E8FCE9FD1225B6E0FAEE24374A
:1024A400F582E43FF583E0F88508F0A4C885F00AD6
:1024B4008509F0A4250AF9EA28F8E439F97A257B94
:1024C40000121F97EA8C828D83F0FA131313541FA2
:1024D400F8EE28F8E43FF9E8245DF582E439F58361
:1024E400E0C0E074075AF8D0E0B800028004C313D7
:1024F400D8FCA2E05003EA8020EE2436F582E43FC3
:10250400F583E0F5F0EA84A8F0EE28F8E43FF9E872
:102514002438F582E439F583E0F97F030221AA74B3
:10252400F51220FEEAFEEBFFEE2434F582E43FF5DB
:1025340083E0C0E01225B6D0E0F08E828F83A3A39F
:10254400A3A3A3E0FAA3E0FB8E828F83A3A3A3A398
:10255400A3A3A3E0C39AF508A3E09BF509EE247FA7
:10256400F8E43FF9880A890B8882F583E0640170F6
:102574002CEE2480F582E43FF583EA2401F8E43B61
:10258400F9E0687003A3E06970137CD87D06EEFA65
:10259400EFFB12109C850A82850B83E4F0AC08AD36
:1025A40009EEFAEFFB122484E9F9122E277F0402C4
:1025B40021AAEE2435F582E43FF58322C082C0834C
:1025C400851882851983E0F8A3E0F9C3EA9CEB9DA2
:1025D4005010C3EC98ED99401BC3EA98EB99501442
:1025E400800EC3EA98EB994007C3EC98ED99400438
:1025F400790180027900D083D08222EAC39CFAEB6D
:102604009DFB2274ED1220FE900381E064086005B6
:10261400E06407702C9061C8E060269003AFE0F896
:1026240074FF68601CE875F00DA4C8AAF02AF97458
:10263400B128FE740339FF8E828F83A3A3A3E070B5
:102644000579000227A9EE2468F50EE43FF50F9002
:102654006060E0850E82850F83F075107275110736
:10266400750800750900E5D914F50AE5D95403F590
:102674000B601FEE2483F50CE43FF50D7403650B2A
:102684006059E50A6017EE2467F582E43FF583E0BC
:10269400700B793DEEFAEFFB1210D280A490076D17
:1026A400E064016023850C82850D83E060047A0474
:1026B40080027A00E50AC39AFA95E0FB120D7E8A3D
:1026C400088B09EA450970061213D8022645850CC1
:1026D40082850D83E070048A108B117A008014E5E2
:1026E400D9C0E0EAF8E51028F582E43511F583D085
:1026F400E0F00AEAC3950A40E6850C82850D83E082
:10270400602874FC250AF50A78101222A9AC0AA9DB
:102714000BEEFAEFFB1211927402122038E9700AE0
:10272400AA08AB09121A500226967403650B60546A
:10273400850A0C750D00780C1222A9AC10AD11AAF3
:1027440008AB091211567402122038850E82850FC7
:1027540083E0F87480687005750C7F8002880CE54E
:102764000CF50D780D1222AD780B1222ADA90AAC2E
:1027740008AD099003AFE0FA7B00120B507402120B
:102784002038801C900381E06408AC10AD117009FE
:10279400EEFAEFFB1211C28007EEFAEFFB12127C85
:1027A4001213E479017F0C0221AA74F31220FE743F
:1027B400FC122022EAFEEBFF8909A2AFE433F508FC
:1027C400C2AFEE2463F50AE43FF50B8010AA0AAB0E
:1027D4000B121108121A509006DFE004F0850A82E9
:1027E400850B83E0F8A3E0F9E849602DE82402FAB8
:1027F400E439FBEA2402F50CE43BF50D780C1222D3
:10280400A98A828B83E0FCA3E0F9EEFAEFFB1210B5
:10281400FC7402122038E960B49006DFE0604D9049
:1028240006E0E0F89006DFE0C398500C74026509F6
:10283400703A9006E1E060348E828F83A3A3A3A351
:10284400E0851882851983122880740212206EE8AC
:102854001228809006DEE028F07402122088AA185C
:10286400AB197901120BB69006DFE4F0E508A2E09B
:1028740092AF74041220387F060221AAF0A3E4F078
:102884009006DFE0F82200008521878522C622C059
:10289400E074EB1221EAA2AFE433F508C2AF759BF2
:1028A40000906182E0A2E05030E591A2E0502A75E8
:1028B40091FE740165217021122A261212D6122A61
:1028C400141222BC122BD17404122038E964017052
:1028D400057901121324122607906182E0A2E550C3
:1028E4005DE591A2E550577591DF900381E064079F
:1028F4006005E06408702F122A2674016521703E79
:102904001212D6122A141222BC122BD174041220D1
:1029140038E96401700579011213247901EEFAEFA4
:10292400FB1227AE8018E0640D70139003A3E0043B
:10293400F064287002E4F07A00E0F9121402906165
:1029440082E0A2E640030229E9E591A2E6400302FF
:1029540029E97591BF900381E0640570081212BEE5
:102964001212CA80031212C4752100121342E99094
:102974000382F07900121324120FB87A017B0090BD
:102984000380E0F9121A20907803E06442705690B4
:102994000771E014F0704EC2AF1229A0007831D054
:1029A400E0F618D0E0F6E59F5407F87005750DFFC2
:1029B4008003750D7FC4C0E07830E6F50A08E6555B
:1029C4000DF50B740B780A122000D0E0250AF8905C
:1029D4006270E0A2E740F8E8C333906272F090625C
:1029E40070E0D2E0F0906181E0A2E35009E5E9A251
:1029F400E3500375E9F7A3E0A2E75009E591A2E7E4
:102A0400500375917FE508A2E092AF7F0802224946
:102A14008E828F83E0F8A3E0C82416F582E438F5AB
:102A240083229003AFE0F875F00DA4C8AAF02AF948
:102A340074B128FE740339FF22C0E0C0D0C082C044
:102A440083906183E0A2E05009E5BFA2E0500375E2
:102A5400BFFEE0A2E15009E5BFA2E1500375BFFD4E
:102A6400E0A2E25009E5BFA2E2500375BFFBE0A279
:102A7400E35009E5BFA2E3500375BFF7E0A2E450B9
:102A840009E5BFA2E4500375BFEFE0A2E55009E5F4
:102A9400BFA2E5500375BFDFE0A2E65009E5BFA27F
:102AA400E6500375BFBFD083D082D0D0D0E032C00F
:102AB400E074F21221EAE5A7A2E4500FE5A1A2E432
:102AC400500953A7EF75A1EF122B07E5A7A2E55014
:102AD4000CE5A1A2E5500653A7DF75A1DFE5A7A287
:102AE400E15009E5A1A2E1500375A1FDE5A7A2E229
:102AF400500CE5A1A2E2500653A7FB75A1FB7F0190
:102B040002224974F81220FE752101900381E064C9
:102B14000670077A007B001212A6A2AFE433FED23D
:102B2400AF900387E0640170187A207B00900380E3
:102B3400E0F9121B347A207B00900380E0F9121A2A
:102B440026906182E0D2E6F090076EE0602185C6AF
:102B5400228016900386E064017008E5C654F844A8
:102B640005F5C653BEFC12288C7401652160E4EEA1
:102B7400A2E092AF7F010221AA0000008E238F24DD
:102B8400858228858327851882851983E0CEA3E072
:102B9400CF852882852783EBC9EAC8EDCBECCA75BB
:102BA400F010C3E833C8E933C9EA33CAEB33CBC303
:102BB400EA9EF526EB9FF525B35004AB25AA26EC37
:102BC40033CCED33CDD5F0DAAE23AF242274F11239
:102BD40020FE8A088B098C0A8D0B90911E780812AE
:102BE4001E8E740F12206E780C121EDA90911E78CD
:102BF4000C121E8E7808790C121C849091165010B9
:102C04007808790C121E537808121CA44014800E04
:102C1400780C7908121E53780C121CA45004790104
:102C2400800279007F080221AA74ED1220FE8A082E
:102C34008B098C0A8D0B90911E7808121E8E7413CA
:102C440012206E780C121EDA90911E780C121E8ED1
:102C5400780C7908121C8440117808790C121E53E0
:102C6400AA08AB09AC0AAD0B8022751000751100DF
:102C74007512007513017810790C121E53781079AF
:102C840008121E1AAA10AB11AC12AD137F0C02214C
:102C9400AA90911E7808121EDA8A828B8378081211
:102CA4001EA17F040221AA74F51220FE8C828D835A
:102CB4007808121EDA8A828B837808121E67122C17
:102CC400FFC3E098F0A3E099122CF1401E909146C6
:102CD4007808121EDA8A828B837808121E408E824C
:102CE4008F83E02420F0A3E0344EF080A4F08E82A1
:102CF4008F83C3E09420A3E0944E22EA2404F8E4F2
:102D04003BF9E8FEE9FF8C828D83A3A3A3A3E0F83B
:102D1400A3E0F98E828F832274F51220FEE9FE90DF
:102D240006FAE0FAA3E0FBEE29F8E433F974852807
:102D3400F582749039F583E02AF508A3E03BF509A0
:102D440078081222A9909136121EF8122B80740270
:102D54001220388A088B098C0A8D0B74107808129B
:102D64001DE2AA08AB097F040221AA74F11220FE15
:102D74008A0C8B0D8C0E8D0F741112206E1222C4CE
:102D8400741112206EE02401F508A3E03400F50963
:102D9400E4F50AF50B780C7908121CF3909122786B
:102DA40008121EDA780C7908121CF3AA0CAB0DACCD
:102DB4000EAD0F122B8074021220388B09EA4509DC
:102DC40060047A0180027A00EC2AFCE43DFD74136D
:102DD40012206EE0F8A3E0F9E8FEE9FFECF8EDF963
:102DE4007A717B02121F9788088909E4F50AF50BAA
:102DF4008E828F837808121EE9ECF8EDF97A717BE4
:102E040002121F978A088B097405780812200F8E06
:102E1400828F83A3A3A3A3E508F0A3E509F07F08A9
:102E24000221AAC082C083E9906000F0D083D082DE
:102E340022C0E074F21221EAA2AFE433FED2AFE57D
:102E44008AA2E25007900D51E0D2E0F0E58AA2E3B5
:102E54005007900D51E0D2E1F0758A00C2EB7A1070
:102E64007B00900D4DE0F9121A20EEA2E092AF7FA4
:102E740001022249C0E0C0D0E8C0E0E9C0E0A9A84E
:102E8400D2AFC2C7E9A2E7E433F8E9A2E792AFD030
:102E9400E0F9D0E0F8D0D0D0E032C0E074F21221F2
:102EA400EAC28BE5C1900F47F0900D87E0700E7C6D
:102EB400017D007A477B0F1219A2022FF37A107B4F
:102EC40000900D9AE0F9121984E97003022FF3902F
:102ED4000E23E064077003022FF3E0601B146031DB
:102EE40014604314605514606B147003022F78143B
:102EF4007003022FC3022FF3900F47E0641B60039B
:102F0400022FF3900E237401F0900E26741B022FEF
:102F1400F2900F47E0900E27F0900E237402F09089
:102F24000F47E0F88026900F47E0F8F9900E28E468
:102F3400F0A3E9F0900E2374038010900F47E0F89B
:102F4400900E28E048F0900E237404F0900E26E0D2
:102F540068022FF2900F47E0640E6003022FEE9098
:102F64000E237405F0900E26E0640EF0900E24E417
:102F7400F0A3807A900F47E0C0E0900E24E0242A6A
:102F8400F8A3E0340EF988828983D0E0F0900E240F
:102F9400E02401F0A3E03400F0900F47E0F8900E35
:102FA40026E068F0900E24E0F8A3E0F9900E28E003
:102FB400687003A3E0697037900E237406802F9025
:102FC4000F47E0F8900E26E068701F900E237407F8
:102FD400F090914A1222BC7A107B00900D9AE0F98D
:102FE400121B2874041220388005900E23E4F07F0D
:102FF40001022249C2AF02000022C0E074F1122192
:10300400EAE59DA2E650FA906206E0F9A2E25034A5
:10301400AA2EEA90620BF0F508852F09740478084B
:10302400122000E508906207F08A08852F097409C8
:103034007808122000E508543E906209F09062017D
:10304400E0D2E0F0E9782B46F6906202E0F50875EC
:1030540009007404780812200F782BE50846F60856
:10306400E50946F6906204E0F508750900740978EC
:103074000812200F782CE50946F6E9A2E050037502
:103084002D017406596003752D00E58BA2E55006E9
:10309400758BDF752D00121B76758B00C2E87F02DD
:0330A400022249BC
:1030A800FFFFFFFFFFFFFFFF75F10075F30C53FFF4
:1030B8003F438680740269700875C50A75C23B80F3
:1030C8000675C50B75C2D8C2E943864043A8840279
:1030D800011F74F71220927800790080178A828B7A
:1030E80083E0F5C1A3AA82AB83A2E950FCC2E90838
:1030F800E8700109C3E89CE99DA2D265D03340DDA0
:103108007F0102216474F6122092E9900D9AF0432F
:10311800FD20D28579021218FA7A8A7B191219963B
:10312800900D9AE0F9121630900D9AE0F912069A6D
:103138001206EE900D9AE0F91206F4900D9AE0F955
:103148001208FE909146121EF81206D69091461269
:103158001EF812091C7A447B1C1219C07C447D1C81
:1031680079001206D07C597D1C7A0279011206D0AA
:103178007C907D017B327A06790F1218A67C037D3C
:103188000E7A107902121B0A7C137D0E7A107903CD
:10319800121B0A7C9B7D0D7A047904121B0A0265B6
:1031A8005B74F4122092EAFEEBFF54807003023243
:1031B8003F900D9AE0F9121A088A088B09EA450926
:1031C800606E8A828B83E0246F600924FE7054123B
:1031D80019188052A3E0F8740E6870208A828B83D5
:1031E800A3A3A3A3A31222C4EA24FDF582EB34FF10
:1031F800F583E024F9125F17790E801D74FF68705B
:10320800288A828B83A3A3A3A3A31222C48A828BB6
:1032180083A3A3E0125F1779FF120B6874021220D0
:1032280038800612193CE96007AA08AB091219F0A0
:10323800EEFAEF64808056EF544060127C9B7D0D5F
:103248007A047904121B04EEFAEF6440803FEE54CE
:1032580020600812197EEE64208030EE5408602049
:10326800900D89E06015D285E4F0900E23F0900D62
:1032780094125EF47A8A7B0D121900EE6408800BB2
:10328800EE5410600B121978EE6410FAEFFB80040C
:103298007A007B0080031220387F04022164E979D8
:1032A8000024FE6008146005146009800C74106A1C
:1032B8007007800774046A6002790202011F74F4BF
:1032C80012209274F9122022EAFEEBFF85188285FB
:1032D8001983E4125BC11235EFC0E0740112206E4D
:1032E800D0E0125AF8A882A983E0FCA3E0FBECFA2C
:1032F800740212206EEAF0A3EBF0E82402F8500101
:103308000988828983E0C0E0740412206ED0E0123C
:103318005AF808A983740512206E125052740212CA
:10332800206EE0F508A3E085080AF50B7407780A13
:10333800122000780A122327010004AD334F3362AC
:1033480033713384339733AC18AD1974011220806C
:10335800E508547FF912192480467401122080E58B
:1033680008547FF912192A8037AC18AD1974011264
:103378002080E508547FF91219308024AC18AD1963
:103388007401122080E508547FF91219368011ACB7
:1033980018AD197401122080E508547FF912191E1E
:1033A800E9F5088003750801EEFAEFFB1219F090B1
:1033B8000DCB747FF0A37406F0E508A3F074021235
:1033C800206EE0900DCEF0740212206EA3E044FC53
:1033D800900DCFF0851882851983E0900DD0F07C90
:1033E800CB7D0D851882851983E02406FA79FF12B2
:1033F8000B6E7900740702329E74EB1220928A8257
:103408008B83ECFEEDFFA312352C8E828F83E4F0C4
:10341800850A82850B83A3858208858309E9146060
:103428000C14605114700302351C023523850A827E
:10343800850B83E0F50A850882850983E0F50BC3CF
:103448009432400302351FAA0BA90A121912E96027
:103458000302351F7CD17D0DAA0BA90A121B0AE9AC
:10346800FA6003023525850882850983E08E828FFC
:1034780083F0023525850A82850B83E0F50C8508E3
:1034880082850983E0F508FAA90C121912E960038C
:1034980002351FE50A2402FEE4350BFFEEFCEFFDC2
:1034A800AA08A90C121B04E9FA7404650C706E8E44
:1034B800828F83E0F50CE4F50DF50EF50F850A8291
:1034C800850B83A3A3123544121DFB780C791012C7
:1034D8001E1A850A82850B83A3A3123537121DFB9A
:1034E800780C7910121E1A850A82850B83A3A3A370
:1034F800A3A3E0F508E4F509F50AF50B74187808B4
:10350800121DFB780C7908121E1A900D9B780C126C
:103518001EE980091219BA7A0280027A01EAF97F53
:103528000D022164A3A3A3E0F50AA3E0F50B22A3EF
:10353800A3E0F510E4F5117410781022A3E0F5105B
:10354800E4F511F512F513740878102274F41220BA
:103558009274EA12202289088A828B831235EDFE42
:10356800A3E0FCE4CCFDEE2CE43DFFE82402FCE4FF
:1035780039FDE50824F6602324F870401235D91285
:1035880022A97402122080120CAC7402122038E9AD
:10359800F9702B1235CB120C2E801D1235D9122240
:1035A800A97402122080120CC47402122038E9F99E
:1035B800700C1235CB120C28E9F9800279017416C7
:1035C80002329E900D9AE0F9AC18AD19EEFAEFFBB5
:1035D800228A828B83A3A3A3E024FEF50AE434FFA6
:1035E800F50B780A22A3A312639EF988828983E0E7
:1035F8002274EC12209274EB122022890BEAF8EB69
:10360800F97E007F00750A40E82403F50EE439F5D9
:103618000F850E82F583E0FAC394025005794002C3
:103628003A27888289831235EDF508A3E0FDE5087D
:103638002EE43DF509751272751391E82403F5100F
:10364800E439F511E82402F50CE439F50DE50B121F
:1036580022F1011D7B3F9A36C636F8362437683783
:10366800A937463887384F399839C739313A623AD5
:10367800BB3A083B5C3BE83B293CCA3C7B3F7B3F71
:10368800F23C983DE33D7D3E7B3FA53E7B3FF53ECA
:10369800533FA818A919880E890F780E1222A9126B
:1036A8003F9E1203587402122038E96003023A223E
:1036B800AC18AD19AA08AB091202F2023A5DA818B3
:1036C800A919880E890F780E1222A9123F97122283
:1036D800A9AC0CAD0D7A00790012036474041220B1
:1036E80038E96003023A22123FEA1206FA023A5D0A
:1036F800A818A919880E890F780E1222A9123F9EC0
:103708001203707402122038E96003023A22AC18DE
:10371800AD19AA08AB091202F8023A5DA818A9194E
:10372800880E890F780E1222A9123F971222A9AC8F
:103738000CAD0D7A00790012037C7404122038E96C
:103748006003023A22740212206E1222C4900D9A6B
:10375800E0F9740212206E1247D712071E02393E92
:10376800123F9E12196C8A0C8B0DAE0CAF0DEE4FEA
:103778007003023A22A818A919880C890D780C122E
:1037880022A9123FD71203887402122038E9600375
:10379800023A1BAC18AD19AA08AB091202FE02398D
:1037A8008DA818A919880E890F780E1222A9123F20
:1037B800971222A9AC0CAD0D7A007900120394740B
:1037C80004122038E96003023A22740412206E12AF
:1037D8003FCF1222A9740712206E85820C85830DB3
:1037E800780C1222A97C027D00AA12AB131204667F
:1037F8007404122038E97003023E7785188285190F
:1038080083E064017002A3E06003023E7774021251
:10381800206EE0F47003A3E0F46003023E771247E1
:10382800AB1222AD740812206EE0F9740912206EF2
:103838001247D71207067401122038023A5D123F68
:103848009E12196C8A0C8B0DAE0CAF0DEE4F7003E7
:10385800023A22A818A919880C890D780C1222A9F5
:10386800123FD71203A07402122038E96003023A0B
:103878001BAC18AD19AA08AB0912030402398DA8AC
:1038880018A919880E890F780E1222A9123F9712CB
:1038980022A9AC0CAD0D7A0079001203AC740412A5
:1038A8002038E96003023A22740412206E123FCFD6
:1038B8001222A9740712206E85820C85830D780C5C
:1038C8001222A97C027D007A6E7B91120466740430
:1038D800122038E9601A740212206E1222C4900D68
:1038E8009AE0F9740212206E1247D712070C80462C
:1038F800740412206E123FCF1222A9740712206E90
:1039080085820C85830D780C1222A97C027D007AB1
:103918007A7B911204667404122038E960207402DC
:1039280012206E1222C4900D9AE0F9740212206ED1
:103938001247D71207127402122038023A5D123F5A
:10394800EA12072A023A5D123F9E12196C8A0C8B02
:103958000DAE0CAF0DEE4F7003023A22A818A9194C
:10396800880C890D780C1222A9123FD71203B8745B
:1039780002122038E96003023A1BAC18AD19AA08F4
:10398800AB0912030AE9F50A6003023A1B023A225C
:10399800A818A919880E890F780E1222A9123F9724
:1039A8001222A9AC0CAD0D7A0079001203C474047C
:1039B800122038E97064123FEA120724023A5DEADD
:1039C800C39403400E123F9E12196C8A0C8B0DAEE5
:1039D8000CAF0D850E82850F83E0FA74026A6004CD
:1039E800EE4F6036A818A919880C890D780C122298
:1039F800A9123F8E1203D07402122038E97010AC5D
:103A080018AD19AA08AB09120310E9F50A600BEE04
:103A18004F6007EEFAEFFB121A50A90A12196674E2
:103A2800151220387F0C022164A818A919880E895C
:103A38000F780E1222A9123F971222A9AC0CAD0DD5
:103A48007A0079001203EE7404122038E970CB1260
:103A58003FEA120730E9F50A80C0EAC39403400E32
:103A6800123F9E12196C8A0C8B0DAE0CAF0D850E91
:103A780082850F83E0FA74026A6004EE4F609BA8A7
:103A880018A919880C890D780C1222A9123F8E12D8
:103A980003FA7402122038E96003023A17AC18AD31
:103AA80019AA08AB09120316E9F50A6003023A17C6
:103AB800023A22123F9E12196C8A0C8B0DAE0CAF83
:103AC8000DEE4F7003023A22A818A919880C890D27
:103AD800780C1222A9850E82850F831247C2122202
:103AE800A9EEFCEFFD7A0079001204067404122096
:103AF80038E96003023A1B123FEA12073602398D91
:103B0800EAC39403400E123F9E12196C8A0C8B0D67
:103B1800AE0CAF0D850E82850F83E0FA74026A60E1
:103B280007EE4F7003023A22A818A919880C890DCC
:103B3800780C1222A9123F8E120412740212203835
:103B4800E96003023A17AC18AD19AA08AB091203C9
:103B58001C023AB0A818A919880E890F780E1222EB
:103B6800A9123F971222A9AC0CAD0D7A0079001268
:103B780003AC7404122038E96003023A2274041278
:103B8800206E123FCF1222A9740712206E85820C74
:103B980085830D780C1222A97C027D00AA12AB1332
:103BA8001204667404122038E97003023E778518FF
:103BB80082851983E064017002A3E06003023E7706
:103BC800740212206EE0F47003A3E0F46003023E76
:103BD80077900D9AE0F9AA08AB09120700023A5D3E
:103BE800123F9E12196C8A0C8B0DAE0CAF0DEE4F66
:103BF8007003023A22A818A919880C890D780C12AA
:103C080022A9123FD712041E7402122038E9600359
:103C1800023A1BAC18AD19AA08AB091203220239E3
:103C28008DEA24FCFCE434FFFDE82404FAE439FBC3
:103C380012196C8A128B13AE12AF13EE4F70030277
:103C48003A22A818A9198812891378121222A9856C
:103C58000E82850F83E024FC123FC51222A9EEFCD8
:103C6800EFFD851082851183E0FA850C82850D832E
:103C7800E0F91203D67404122038E96003023A1BF3
:103C8800740612206EE07008123FEA120748801886
:103C9800740512206EE0AC18AD19AA08AB097005BE
:103CA80012073C8003120742E9F50AE50A6003029D
:103CB8003A1B740312206E125D057003023A1B0250
:103CC8003A22A818A919880E890F780E1222A9126B
:103CD8003F9E1203E27402122038E96003023A227E
:103CE800AA08AB09120328023A5D123F9E12196C0A
:103CF8008A088B09AE08AF09EE4F7003023A22A872
:103D080018A9198808890978081222A9850E8285B8
:103D18000F83E024FEF508E434FFF5097808122241
:103D2800A9EEFCEFFD7A00790012042A740412202F
:103D380038E96003023A1B900F4B125D05700F7A49
:103D4800237B00121A9E900F4BEAF0A3EBF0900F22
:103D58004B125D056034900F4AE0C394054003029E
:103D68003E771247B729F0750807750900780812D9
:103D780022A97402122088E9123FA7FB1219C674FF
:103D880002122038750A00023A22750A13023A1BF9
:103D9800123F9E12196C8A0C8B0DAE0CAF0DEE4FB4
:103DA8007003023A22A818A919880C890D780C12F8
:103DB80022A9123FD71204367402122038E9600390
:103DC800023A1BAC18AD19AA08AB0912032EE9F583
:103DD8000A6003023A1B7405023CBCA818A919889A
:103DE8000E890F780E1222A9123F971222A9AC0C45
:103DF800AD0D7A0079001204427404122038E9608B
:103E080003023A22900F4B125D0560631247AB1212
:103E180022AD740112206E1247AE1222AD900F4AE5
:103E2800E0F9900F4B1247D712075474021220384A
:103E3800E9F50A602C7E008015EE123FA78A82F50C
:103E480083A3A3125F1CEA4B6003121A500E900F53
:103E58004AE0F8EEC39840E1900F4B125F1F121A28
:103E6800A4900F4BE4F0A3F0900F4AF0023A2275A9
:103E78000A02023A17A818A919880E890F780E1293
:103E880022A9123F9E1204487402122038E96003E6
:103E9800023A22AA08AB09120334023A5D123F81A2
:103EA80012196C8A108B11AE10AF11EE4F7003020D
:103EB8003A22A818A9198810891178101222A91273
:103EC8003FB81222A9EEFCEFFD7A007900120454E3
:103ED8007404122038E96003023A1B850C82850DB0
:103EE80083123FED120838E9F50A023CB5123F810A
:103EF80012196C8A108B11AE10AF11EE4F700302BD
:103F08003A22A818A9198810891178101222A91222
:103F18003FB81222A9EEFCEFFD7A00790012045492
:103F28007404122038E96003023A1B1247AB1222CC
:103F3800AD850C82850D831247B7122088AA08AB7D
:103F4800091208327401122038809CA818A919880F
:103F58000E890F780E1222A9123F9E12045A74027B
:103F6800122038E96003023A22AA08AB091202E6D5
:103F7800023A5D750A01023A22EA24FDFCE434FFA4
:103F8800FDAA10AB1122EA123FE2EEFAEFFB22EA99
:103F980024FE123FC522EA123FE2AA0CAB0D22759D
:103FA800F007A4F8A9F0900F4BE028FAA3E0392213
:103FB800850E82850F83E024FD123FC522F50EE4AD
:103FC80034FFF50F780E22E0F50C8E0D780C228563
:103FD8000E82850F83E0123FE22224FEFCE434FFC8
:103FE800FD22900D9AE0F9AC18AD19AA08AB092288
:103FF80074E812209274EA122022E9851882851941
:1040080083F0750E00750F00750A40EA2403F51059
:10401800E43BF511851082F583E0F9C3940250055D
:1040280079400245EA8A828B83A3A3A3A3E0FEA377
:10403800E0FF8E828F83E0FCA3E0FAE4CAFBEC2A5F
:10404800F508E43BF509EE2402F50CE43FF50DEE26
:104058002403F512E43FF513851882851983E012CD
:10406800236D001602B04004BE4106F840088341A3
:104078000A09420C7F420EBA4210EB4012A64316C0
:10408800FB431BCC461D28473011413211413444B3
:1040980042360F43385B433A7C443CF9453E33464D
:1040A800406A4642FB43854774011220808A0E8B82
:1040B8000F780E1222A9E9123F981222A9AC0CAD72
:1040C8000D7A0079001203647404122038E9600341
:1040D8000245E51247B4122088AA08AB091206FA6D
:1040E80002462E900D9AE0F9AA0812070002462E01
:1040F8001247AB1222AD1919AC0CAD0DAA08120764
:1041080006740112203802462EE924FEF8E434FF32
:10411800F97404684960030245E5850C82850D83BE
:10412800E0FA851282851383E0F8E4C8F9EA28FCEE
:10413800E439FD8E828F83A3A3A3A3E0FA8E828F36
:1041480083A3A3A3A3A3E0F9EAF50AE439F50B8551
:104158001882851983E06430780A70101222A990B9
:104168000D9AE0F9AA0812070C0242011222A9903E
:104178000D9AE0F9AA08120712807E7401122080B5
:104188008A0E8B0F780E1222A9E9123F981222A9E3
:10419800AC0CAD0D7A0079001203AC74041220380F
:1041A800E960030245E51247B4122088AA08AB0962
:1041B80012071802462E74011220808A0E8B0F787F
:1041C8000E1222A9E9123F981222A9AC0CAD0D7A61
:1041D80000790012037C7404122038E96003024558
:1041E800E5740312206E1222C4900D9AE0F974034C
:1041F80012206E1247D712071E7402122038024688
:104208002E74011220808A0E8B0F780E1222A9E9D3
:10421800123F981222A9AC0CAD0D7A007900120356
:10422800C47404122038E960030245E51247B41249
:104238002088AA08AB0912072402462E740112200E
:10424800808A0E8B0F780E1222A9E9123F9812224B
:10425800A9AC0CAD0D7A0079001203AC74041220DD
:1042680038E960030245E51247B4122088AA08AB72
:104278000912072A02462E74011220808A0E8B0F1B
:10428800780E1222A9E9123F981222A9AC0CAD0DA2
:104298007A0079001203EE7404122038E9600302F0
:1042A80045E51247B4122088AA08AB091207300264
:1042B800462EE9123F9F12196C8A0E8B0FEA450FA2
:1042C80070030245E57401122078880C890D780C7A
:1042D8001222A91247BC1222A9AC0EAD0F7A00799E
:1042E800001204067404122038E960030245DE1245
:1042F80047B4122088AA08AB09120736E9F50A6004
:10430800030245DE0245E5E9123F9F12196C8A0E49
:104318008B0FEA450F70030245E574011220788877
:104328000C890D780C1222A91247BC1222A9AC0ED6
:10433800AD0F7A0179001203D67404122038E960AF
:10434800030245DE7401122088AA08AB0912073C53
:104358000243F0E9123F9F12196C8A0E8B0FEA454F
:104368000F70030245E57401122078880C890D78D6
:104378000C1222A91247BC1222A9AC0EAD0F7A0169
:1043880079011203D67404122038E960030245DE6D
:104398007401122088AA08AB09120742804AE91260
:1043A8003F9F12196C8A0E8B0FEA450F7003024566
:1043B800E57401122078880C890D780C1222A91254
:1043C80047BC1222A9AC0EAD0F7A0079001203D6B1
:1043D8007404122038E960030245DE1247B4122043
:1043E80088AA08AB09120748E9F50A60030245DE06
:1043F8000246BCE9123F9F12196C8A0E8B0FEA45E0
:104408000F70030245E57401122078880C890D7835
:104418000C1222A91247BC1222A9AC0EAD0F7A00C9
:10442800790012042A7404122038E960030245DE78
:10443800851882851983E06416900D9A700F1247CB
:10444800B7122088AA08AB0912074E800D1247B789
:10445800122088AA08AB0912076CE9F50AE50A6078
:10446800030245DE740612206E125D0570030245D4
:10447800DE0245E5E924FEF8E434FFF9C3E89401D7
:10448800E99400A2D265D03350030245E5850C8239
:10449800850D83E0F51070030245F4C394064003CC
:1044A8000245F4E51075F007A4FEAFF0FAEFFB1231
:1044B8001A9E8A148B15EA451570030245EFEEFC27
:1044C800EFFD79001219DEAE12AF13750B008034C0
:1044D800E8FEE9FF85160C85170D780C1222A975E0
:1044E8000C04750D00780C1222A9EEFCEFFD7A0081
:1044F800790012042A7404122038A811EE28FEE468
:104508003FFF050BE50BC395105066751104E50BCD
:1045180075F007A4F8A9F0E51428F516E51539F59E
:10452800178E828F83A3A882A9838E828F83E0FA55
:10453800609E74042AF511E8FEE9FF85110C750DDB
:1045480000AC0CAD0DEEFAEFFB12196C8A0E8B0F56
:10455800EA450F7005750A138042851612851713F0
:1045680078121222A9780C1222A9AC0EAD0F0244BF
:10457800F6E510650B70251247AB1222AD750A01DE
:10458800780A1222ADA910AC14AD15AA08AB09120D
:1045980007547402122038E9F50A6034750B00805C
:1045A80021E50B75F007A4F8A9F0E51428F582E5D4
:1045B8001539F583A3A3125F1CEA4B6003121A5046
:1045C800050BE50BC3951040D8AA14AB15121AA415
:1045D800E50E450F6007AA0EAB0F121A50A90A1272
:1045E80019667416026296750A1380F1750A0280BC
:1045F800EC74011220808A0E8B0F780E1222A9E922
:10460800123F981222A9AC0CAD0D7A007900120362
:10461800C47404122038E970C41247B4122088AA5E
:1046280008AB0912075AE9F50A80B2740112208012
:104638008A0E8B0F780E1222A9E9123F981222A92E
:10464800AC0CAD0D7A0079001203EE740412203818
:10465800E9708A1247B4122088AA08AB09120760C9
:1046680080C4E9123F9F12196C8A0E8B0FEA450F1E
:1046780070030245E57401122078880C890D780CC6
:104688001222A91247BC1222A9AC0EAD0F7A0079EA
:10469800001203D67404122038E960030245DE12C2
:1046A80047B4122088AA08AB09120766E9F50A6020
:1046B800030245DE740412206E125D057003024584
:1046C800D80245E512478B12196C8A0E8B0FEA4502
:1046D8000F70030245E57401122078881289137857
:1046E800121222A91247981222A9AC0EAD0F7A0015
:1046F80079001204547404122038E960030245DE7C
:10470800850C82850D831247B7122088AA08AB0949
:10471800120838E9F50A60030245DE740402446EA3
:1047280012478B12196C8A0E8B0FEA450F70030221
:1047380045E574011220788812891378121222A98B
:104748001247981222A9AC0EAD0F7A007900120414
:10475800547404122038E960030245DE1247AB1294
:1047680022AD850C82850D83E0F97402122088AA97
:1047780008AB0912083274011220388096750A01B4
:104788000245E5E924FDFCE434FFFDAA12AB13223F
:10479800851082851183E024FDF510E434FFF511BE
:1047A800781022900D9AE0F50A780A22900D9AE086
:1047B800F9740122851082851183E024FEF50CE44A
:1047C80034FFF50D780C22A3A3A3A3A3A3A3A312DC
:1047D8005EF4AA08AB092274EA12209274A512208A
:1047E800228C0C8D0D8A828B83A3A3A3A3E0FEA346
:1047F800E0FF750E00EE2402F50AE43FF50B8E8209
:104808008F83A3858208858309E970030248AC2455
:10481800FD70030249B31470030249FC14700302CB
:104828004A3B147003024A97147003024AFD14703D
:1048380003024B14147003024A46147003024B1F00
:10484800147003024B83147003024EEE14700302BB
:104858004F88147003024E6F147003024DF11470E8
:1048680003024DE8147003024B3824E17003024F31
:1048780010147003024F43147003024EFF147003A8
:10488800024F91147003024FFF1470030250111469
:10489800700302502414700302501914700302505C
:1048A800240250298E828F83E0F5147C107900AAA7
:1048B8000AAB0B121A44E9701B750C10750D0078C1
:1048C8000C1222A9AC0AAD0B7A037B0E1219C6741E
:1048D80002122038EE2412F50AE43FF50B7C107919
:1048E80000AA0AFB121A44E9701B750C10750D001A
:1048F800780C1222A9AC0AAD0B7A137B0E1219C6DA
:104908007402122038EE2422125A99F50CE4F50D9F
:10491800F50FEE2423F582E43FF583123545121D89
:10492800FB780C7910121E1AEE2424F582E43FF568
:1049380083123539121DFB780C7910121E1AEE24D9
:1049480025F582E43FF5831250A8121DFB780C79F7
:1049580010121E1AE50C450D450E450F6008900D06
:104968009B780C121EE9750A9B750B0D780A1222AA
:10497800A9750A13750B0E780A1222A97C037D0EFD
:10498800850882850983E0FBAA14900D9AE0F91244
:10499800181C7404122038E9F50E900D9AE0FC7D7D
:1049A800007A267B001204DE02502C750A00750B73
:1049B800009090C6740A1220887406121F35750C70
:1049C80006F50D780C1222A9740C122088AA08ABDF
:1049D800091219D87402122038E9640160068508A2
:1049E8000A85090BAA0AAB0B8E828F83E0F91204A1
:1049F800F6025014900D9AE0C0E0741012206ED0A8
:104A0800E0125BC1E0C0E0741112206ED0E01250D9
:104A180071C0E0741212206ED0E0125061E0C0E064
:104A2800741312206ED0E0F0741012208012047EED
:104A3800025014900D9AE0F9120484025014900D5B
:104A48009A12509F8E828F83E0C0E0740112206E0C
:104A5800D0E0125071C0E0740212206ED0E0125003
:104A680092C0E0740312206ED0E012507C1222A98A
:104A7800EEFCEFFD740612206EAA82AB831219C6F3
:104A88007402122038AA18AB191204C00250148EEE
:104A9800828F8312509FAE08AF098E828F83E0C049
:104AA800E0740112206ED0E012507C1222A9EEFCB4
:104AB800EFFD740412206EAA82AB831219C6740229
:104AC800122038EE2406FE50010F8E828F83E0C03C
:104AD800E0740812206ED0E0125061E0C0E0740962
:104AE80012206ED0E0F0AA18AB19900D9AE0F912D6
:104AF8000604025014AC0AAD0BE0FB8E828F83E0F3
:104B0800FA900D9AE0F912060A025014900D9AE0F4
:104B1800F9120610025014850A82850B83E0FC12F4
:104B280050B9E439FB900D9AE0F912056802501467
:104B38001250B38518828519831250581250EE749A
:104B48000212206E12508850010F1250EE74041297
:104B5800206E12508850010F1250EE740612206E0B
:104B680012508850010F1250EE740812206E125025
:104B780052AA18AB1912056E025014750C00750D67
:104B8800007C187D00790074141220801219DE123E
:104B980050B3F8741412206EE81250588E828F8326
:104BA800E0C0E0741612206ED0E0125061AE82AF01
:104BB80083E0C0E0741712206ED0E01250610EAF8F
:104BC8008375081075090078081222A9EEFCEFFD1C
:104BD800741A12206EAA82AB831219C674021220AC
:104BE80038EE2410FE50010F8E828F83E0C0E074EF
:104BF8002812206ED0E0125092C0E0742B12206E62
:104C0800D0E012506AA30E0EAF83A2E0E433F51091
:104C1800E50EA2E15004D2F08002C2F0A2F0E43323
:104C2800F8E50EA2E25004D2F08002C2F0A2F0E44D
:104C380033F50A750B00E50EA2E35004D2F08002AA
:104C4800C2F0A2F0E433FCE50EA2E45004D2F080F6
:104C580002C2F0A2F0E433FAE50EA2E55004D2F065
:104C68008002C2F0A2F0E433F508E50EA2E6500493
:104C7800D2F08002C2F0751100E828F8E51048F576
:104C8800107402780A12200FE510450AF50A8C10F4
:104C98007403781012200FE50A4510F8EAFBE8FAC9
:104CA8007409780812200FEB4509FBA2F0E433F5EC
:104CB80008750900740A780812200F12503812205B
:104CC8000FEAF8EB4509F9742912206E1250528E3A
:104CD800828F83E0F50EA30EAF837003024DD9E0F7
:104CE800C0E0740A12206ED0E0125092C0E0740B3B
:104CF80012206ED0E0125092C0E0740C12206ED0D8
:104D0800E0125092C0E0740D12206ED0E012506A8A
:104D1800A2E0E433FCE50EA2E15004D2F08002C226
:104D2800F0A2F0E433F8E50EA2E25004D2F08002DB
:104D3800C2F0A2F0E433F508750900E50EA2E350CD
:104D480004D2F08002C2F0A2F0E433F50AE50EA224
:104D5800E45004D2F08002C2F0A2F0E433FAE50E87
:104D6800A2E55004D2F08002C2F0A2F0E433F50CC0
:104D7800E50EA2E65004D2F08002C2F0E828F8EC72
:104D880048FC7402780812200FEC4508FC7403787C
:104D98000A12200FEC450AF8EAFBE8FA7409780CC5
:104DA80012200FEB450DFBA2F0E433F508740A78E6
:104DB8000812200F12503812200FEAF8EB4509F9B3
:104DC800740E12206E125052740A122078880C89C0
:104DD8000DAC0CAD0D741412208012057A0250141B
:104DE8001250D51205800250141250FA1222A9EE60
:104DF800FCEFFD74421220801219C674021220388A
:104E0800EE2410FE50010F1250EE745012206E1254
:104E1800508850010F750C08780C1222A9EEFCEF8F
:104E2800FD745412206EAA82AB831219C674021242
:104E380020388E828F83A3A3A3A3A3A3A3A3E0C038
:104E4800E0745A12206ED0E0F0750B01780B122234
:104E5800AD7441122088A90AAA08AB0912059274F8
:104E6800011220380250141250FA1222A9EEFCEF57
:104E7800FD742E1220801219C67402122038EE24F6
:104E880010FE50010F8E828F83E0F50CE4F50F12AF
:104E98003544121DFB780C7910121E1A8E828F83EE
:104EA800123537121DFB780C7910121E1A8E828F5C
:104EB80083A3A3A31250A8121DFB780C7910121E0D
:104EC8001A743C12206EE50CF0A3E50DF0A3E50E74
:104ED800F0A3E50FF0742C122088A90AAA08AB09E0
:104EE8001205740250141250B9FCE439FDAA0AAB39
:104EF8000B120586025014EE2410FCE43FFDEEFA76
:104F0800EFFB12054A0250148E828F83E0FA7B0071
:104F1800850882850983E0FC850A82850B83E0F990
:104F2800EC2BE439FDEA64267003025024EA942746
:104F380040030250241204DE02501478FF79FF8ED9
:104F4800828F83E0FA7B00F46020EA6426601BEA23
:104F5800C3942750151204E48A088B09A808A909E4
:104F680074FF68700374FF697003750E02850C8204
:104F7800850D837402F0E8900DD1F0E9A302502169
:104F88001250D5120682025014E0F50CF50E750F7A
:104F9800002404FAE43400FB121A9E8A088B09EAFA
:104FA8004509604E8E828F83125B54A3E50CF0EAAC
:104FB8002402E435090A0AFBE5082404F8E4350963
:104FC800F98A828B83125052780E1222A9AC0AAD4C
:104FD8000B8A828B83125F1F1219C6740212203843
:104FE800AA08AB09120616E9F50E6038AA08AB093B
:104FF8008012750E13802D8E828F83E0F912061CA5
:10500800EA4B6018121AA4801B120622E9F50E80DA
:1050180013750E028C828D83E4F08008750E028071
:1050280003750E01A90E745B1220387F0E022164ED
:10503800EB4509FBE50EA2E7E433F50875090074B2
:105048000B780822851882851983E8F0A3E9F022F5
:10505800F0A3E9F00E0EAF0B2212506522125BC1CD
:10506800A322125065E0F50E22F0AE08AF098E8239
:105078008F83E02212509775080675090078082278
:10508800E8F0A3E9F0EE2402FE22125097E0221283
:105098005BC1A30EAF8322E0851882851983F022B5
:1050A800E0F510E4F51274187810221250C7F9EAE6
:1050B800221250BD221250C7F8E4C8F9EA28228EFD
:1050C800828F83E0FA850882850983E022850A8237
:1050D800850B83E0F98E828F83E0FC850882850941
:1050E80083E0FBECFA228E828F83E0FAA3E0F9EAF0
:1050F800F8221250BDF508E439F5090E0EAF0B8EF3
:10510800828F83E0F50AA3AE82AF83750C10880DF9
:10511800780C2274F412209274FD122022EAFEEB1D
:10512800FF851882851983E4F0F508F50904122033
:105138006EE4F0740212206E7401F07C2C7D00790C
:10514800007A9F7B0D1219DE8E828F83E0246060C7
:105158006F24FE605124F270030251F114700302AF
:10516800521F24E16003025240740212207888081A
:10517800890978081222A9740312207888088909F5
:1051880078081222A97404122078880889097808F6
:105198001222A97C9F7D0DEEFAEFFB1219427406CC
:1051A80012203802523CA818A919880889097808D9
:1051B8001222A97C9F7D0DEEFAEFFB121948806F31
:1051C80074011220788808890978081222A97402C3
:1051D8001220788808890978081222A97C9F7D0DF9
:1051E800EEFAEFFB12194E80277401122078880816
:1051F800890978081222A974021220788808890976
:1052080078081222A97C9F7D0DEEFAEFFB12195443
:105218007404122038801DA818A9198808890978EB
:10522800081222A97C9F7D0DEEFAEFFB12195A7421
:10523800021220388A088B09740212206EE0600777
:10524800EEFAEFFB1219F0851882851983E0600ADF
:10525800AC08AD09FA79FF120B6EE5084509601133
:10526800740112206EE064017007AA08AB09121AD3
:10527800A47900740302329E74E812209274FE121C
:105288002022EAFEEBFF8C088D09751000750A00D4
:10529800750B00741E12206E12628FEC2406F8E45F
:1052A8003509F9EC240BF50CE43509F50DEC24056A
:1052B800FAE43509FB8C828D83A3858214858315D6
:1052C800EE2403F50EE43FF50F8E828F83A38582CB
:1052D800128583138E828F83A3A3E0605D1470030D
:1052E8000253D21470030254DA1470030254F914EE
:1052F800700302550414700302551F1470030255FD
:10530800E51470030255FB1470030256471470032A
:1053180002566714700302571B1470030256E414F4
:1053280070030259AD1470030259DF147003025858
:10533800FD147003025910025A648C828D83E412A2
:105348005B8B1222A9AC0EAD0FE5082403FAE435F5
:1053580009FB1219C67402122038125D0C750A1066
:10536800780A1222A97C037D0EE508240CFAE4359C
:1053780009FB1219C67402122038780A1222A97C75
:10538800137D0EE508241CFAE43509FB1219C674CE
:1053980002122038851282851383E070217C037DF8
:1053A8000E7A107902121B047C137D0E7A10790391
:1053B800121B047C9B7D0D7A047904121B0485085A
:1053C8000A85090B75102C025A648512828513838D
:1053D800E060030254AC850E82850F83E0700302FF
:1053E80054C133333354F82404F510FA7B00121AED
:1053F8009E8A0A8B0BEA450B70030254A38A828BA0
:10540800837401F0A37406F0A385820C85830D854F
:105418001282851383125C8D850E82850F83125C40
:105428008D8E828F83A3A3A3A312639912504C7EFF
:1054380000804F12627D125C8D12627DA3125C8D1A
:1054480075160675170078161222A9740212206EB6
:10545800E02402FCA3E03400FDAA0CAB0D1219C62F
:105468007402122038E50C2406F50C5002050D0EC6
:10547800851882851983E02408F8A3E03400F9121E
:10548800504C850E82850F83E0F8EEC39840A474D3
:105498001C12206E126283740180088512828513A3
:1054A800837413F0851282851383E0700C850E8255
:1054B800850F83E06003025A648508828509837436
:1054C80001125AFF125B42126342A3A3E4125B2942
:1054D80080198C828D837402125ABA125B70850E01
:1054E80082850F83125B358C0A8D0B751004025A66
:1054F800648C828D837403125AFF800E8C828D8394
:105508007404125ADB8E828F83A3125B738C0A8D0C
:105518000B751003025A648C828D837405125AB27B
:1055280004125CD81222A9125AA11219C6740212C6
:1055380020388E828F83A3A3A3A3A3A3A3A3A3121C
:105548005F10A3A3125B15A3125B31125A96C0E039
:10555800125A8AD0E0125ACCE0C0E0E508240D12B5
:105568005A8ED0E0125ACCA3E0C0E0E508240E120F
:105578005A8ED0E0F0EE240FF8E43FF98882898350
:10558800E0C0E0E508240F125A8ED0E0125AF8E085
:10559800C0E0E5082410125A8ED0E0F0EE2411F88D
:1055A800E43FF988828983E0C0E0E5082411125AB3
:1055B8008ED0E0125AF8E0C0E0E5082412125A8EA4
:1055C800D0E0F0EE2413125A99C0E0E50824131233
:1055D8005A8ED0E0125B29751014025A648C828DA1
:1055E800837406125AB2125CEA8C0A8D0B75100687
:1055F800025A648C828D837407125AB214125B703B
:105608008E828F83A3A3A3A3125B358E828F83120E
:105618005BC7126560A3A3125B548E828F83A312AB
:105628005B5BA3125BB4A3125BF7125BAF125B1553
:10563800125BAFA3F08C0A8D0B75100B025A648CA9
:10564800828D837408125CD51222A9125AA11219EC
:10565800C6740212203885080A85090B0259A78CDE
:10566800828D837409125CD51222A9125AA11219CB
:10567800C674021220388E828F83A3A3A3A3A3A388
:10568800A3A3A3A37810121EDA850882850983A331
:10569800A3A3A3A3A3A3A3A3A3E510125B15781048
:1056A800121EDAE511850C82850D83125B23121E0A
:1056B800DA7410780C121DE2125A8AE50C125B2378
:1056C800121EDA7418780C121DE2E508240D125A1D
:1056D8008EE50C125B2975100E025A648C828D833C
:1056E800740B125B8B1222A9AC0EAD0FE5082403D4
:1056F800FAE43509FB1219C67402122038125D0C3F
:10570800125A96C0E0125A8AD0E0125B2975100D21
:10571800025A6475106A7A6A7B00121A9E8A0A8B8A
:105728000BEA450B70030258CD741C12206E1262EE
:105738008F7C6A7D0079001219DE850A82850B83C9
:10574800740A125C1E850E82850F83125BD9A3A38F
:10575800A3A3125BD9125CFF6044125AE4125C38AE
:105768001222A98E828F831247D11219C67402128F
:105778002038E5082410F508500205098E828F8329
:10578800125C6D125C121222A98E828F83125B77D3
:105798001219C67402122038E50824088004E508A6
:1057A800241CF508500205098E828F83A3A3125C7E
:1057B800FD6056125AE4A3A3A3A3125C381222A9CF
:1057C8008E828F83A3A31247CF1219C674021220A8
:1057D80038E5082410F508500205098E828F83A346
:1057E800A3A3A3125C6DA3A3A3A3125C121222A904
:1057F8008E828F83A3A3A3A3125B771219C67402A8
:10580800122038E50824088004E508241CF508500F
:10581800020509125A78125D05603C125B091222D2
:10582800A9125A781247D71219C67402122038E5FD
:10583800082410F50850020509750C06780C122288
:10584800A9125A962410125B801219C674021220EB
:1058580038E50824068004E5082417F508500205F1
:10586800098E828F83125CFD7003025A64125B09F1
:105878001222A98E828F831247CF1219C674021280
:105888002038E5082410F50850020509125CA31217
:105898001EDA125C98121EDAE50D850882850983E6
:1058A800125CA0121EDA7410780C121DE2125C98B9
:1058B800121EDA7418780C121DE285088285098395
:1058C800E50C025A63850882850983740A125ADB3B
:1058D800850882850983A3A37413F0850E82850F3A
:1058E80083125B42A3F0850E82850F83A3125EFAB2
:1058F800125B29800D8C828D83740E125CAF8C0A2A
:105908008D0B751005025A648C828D83740F125AA0
:10591800BA125CEA8E828F83125B5B125BB4125BF5
:10592800F7126399E8A2E0E433F50AE85402600448
:105938007A0280027A00EA420AE8540460047A048F
:1059480080027A00EA420AE8540860047A08800271
:105958007A00EA420AE9540160047A1080027A0067
:10596800EA420AE9540260047A2080027A00EA4294
:105978000AE9540460047A4080027A00EA420AE99B
:1059880054086004788080027800E8450A8C828D8B
:1059980083A3A3A3A3A3A3A3A3A3F08C0A8D0B752E
:1059A800100A025A648C828D83740C125CAF750ADB
:1059B80006780A1222A9EE2405FCE43FFD1219C656
:1059C8007402122038125A7C125B3185080A850944
:1059D8000B75100C025A64125A96240DF510FA7BB6
:1059E80000121A9E8A0A8B0BEA450B60668A828B24
:1059F80083740D125C1E8E828F83A3A3A3125C5442
:105A0800750C06750D00780C1222A9EE2405FCE42D
:105A18003FFDAA08AB091219C67402122038E5081E
:105A28002406F50850020509125A7C125BE6125B3F
:105A3800E6E0F50C780C1222A9125AD11247D712B7
:105A480019C67402122038741C12206E12628374F4
:105A58000180088512828513837413F0741A12204A
:105A68006E126283E510F0AA0AAB0B74020262960A
:105A7800125BED22125A8022EE240BF582E43FF5E8
:105A88008322E508240CF582E43509F58322EE2407
:105A98000CF582E43FF583E022EE2404FCE43FFDAC
:105AA800E50824041AE43509FB22F08514828515DB
:105AB8008322125ABE22125AC222F08514828515F8
:105AC80083740622F0125AD122EE240DF582E43FA7
:105AD800F58322125ADF22125AC2F022125AEC8E91
:105AE800828F83228508828509837401125C64226F
:105AF800F088828983A322125ADF85128285138354
:105B080022125AEC750C10750D00780C22125B19D4
:105B180022126569A3A3A3A3A3A322125B19780C7D
:105B280022F085080A85090B22125D3222125B39A0
